:10000000604F002005100000FF0F000001100000ED
:1000100000000000000000000000000000000000E0
:1000200000000000000000000000000005110000BA
:10003000000000000000000061110000A511000098
:10004000FD0F0000FD0F0000FD0F0000FD0F000080
:10005000FD0F0000FD0F0000950A0000FD0F0000DD
:10006000FD0F0000FD0F0000FD0F0000FD0C000063
:10007000FD0F0000FD0F0000FD0F0000FD0F000050
:10008000FD0F0000FD0F0000FD0F0000FD0F000040
:10009000FD0F00000000000000000000FD0F000048
:1000A000FD0F0000FD0F0000FD0F0000FD0F000020
:1000B00010B5064C2378002B07D1054B002B02D03E
:1000C000044800E000BF0123237010BD400400205D
:1000D00000000000901A0200084B10B5002B03D05E
:1000E0000749084800E000BF07480368002B00D11B
:1000F00010BD064B002BFBD09847F9E7000000002D
:1001000044040020901A0200901A0200000000002F
:100110000122014B1A7070475C040020084B13B594
:100120009847084A031E02D00123537013BD0432BE
:100130000548009209210122044C0068A047F5E718
:10014000910C00005C0400204C2E0020DD18000003
:1001500010B500210348044B984700210348044B85
:10016000984710BD11010000A10C00001D01000006
:10017000F10C000002003038C0B2092806D9130083
:10018000613B0020052B01D8573AD0B270470000E0
:10019000F7B5234B042123489847234C234D2100D6
:1001A0000A22234B280098470A2200212000214BD5
:1001B000984720000A21204B98476C78322C0BD0AE
:1001C000332C0FD00020312C05D1E8791B4B9847F8
:1001D0001B4BD8702000FEBDE879184B9847184B90
:1001E0001871F7E7A878154EB0470190E878B04746
:1001F000019B134F1B01C01838702879B04701903C
:100200006879B047019B1B01C0187870A879B04786
:100210000190E879B047019B1B01C018B870D9E77D
:10022000E10B000094230000352E00203F2E00201B
:1002300025210000A9210000AD0C0000750100007F
:10024000302E002073B5FA250126AD0076420A2132
:100250001C4B1D4898472B0001AA310000201B4C65
:10026000A0470128F3D10923019A1A42EFD0184B75
:100270009847322819D033281CD03128E7D1154BA4
:10028000D8780328E3D8144C01F032FE02060B0D97
:10029000124B9847A047DAE7114B9847114B984704
:1002A000F8E7114BF5E7114BF7E70A4B1879104BBC
:1002B0009847CCE7074B9A78597818780D4B9847B0
:1002C000C5E7C046AD0C0000352E002059180000CF
:1002D00091010000302E0020711E0000091D000059
:1002E000C11C00007D1E0000191D0000F91C00004B
:1002F000051B0000B11D000013B5074B0400984713
:100300008022064B00940193520000230449054CBF
:100310000548A04713BDC046510100004C2E0020E7
:10032000992300000D1400004502000001211C4B20
:1003300010B51A6A1B4C12090A401B4B62701B68ED
:100340005B0A0B4023700023A370184B98470300EF
:10035000022814D003281DD00128F6D1A078012846
:10036000F2D1134BDA78002A03D19621114B98472A
:10037000EBE79B78002BE8D10F4B9847E5E7A27895
:10038000022AE1D10A4BD8780028EED09B78012BC5
:10039000DBD1F1E7064BDB78002BD6D0ECE7C0468B
:1003A00000440041382F0020A0440041191E0000E5
:1003B000342F0020851C0000091D0000802213B589
:1003C000044B00900193520000230349034C04485E
:1003D000A04713BD502E0020A22300000D140000E2
:1003E0002D03000013B50100012807D1044B0200C2
:1003F0000448009300680023034CA04713BDC04687
:1004000064040020542E0020DD1800000A4B10B5B3
:100410000A4898470A4AC0B21379834204D000239D
:1004200010715371062010BD53790133DBB2022BDA
:10043000F9D85371F6E7C046D5190000582E0020B0
:100440006404002070B50500314C062819D1A37949
:100450005A1CA271322B02D90023E371A371E379F4
:10046000032B0DD12B4B9847002809D12A4B2B4A3F
:100470001988A071914203D918800830284B9847F9
:1004800070BD0023A371E379834231D0254B984797
:10049000254A264B681EE5711A800428DFD8244EB1
:1004A0001F4D01F025FD0309101B2000214B98472B
:1004B000B0470520A847D2E71F4B98471F4B9847E6
:1004C000B0470620F6E71E4B98471C4B9847B047AD
:1004D0000820A8470022104B1A80C0E7154B984708
:1004E000B0470920E6E7174B9847B0470720E1E7F8
:1004F000042BB4D10D4D2B88002BC1D10E4B984746
:100500000E4B98470A4B9847074B2B80A7E7C046EE
:1005100064040020511D00000C2E0020E7030000A1
:10052000051B0000D51D00008813000004000020FA
:10053000711E0000091D0000C11C00007D1E00008E
:10054000F91C0000191D0000F0B500240126270049
:1005500085B080223F4B9203052C0AD8601E0428E8
:1005600007D880213C4D090201F0C2FC444A505595
:100570005A009A6140229A618022002412029A61F4
:10058000631CDBB230000093344B9847344B9847E0
:10059000344A354908323000344B98478023344A76
:1005A0003449354D3000A847FA2301219B0003AAA6
:1005B0004942324D0020A847314D0190A847314BA8
:1005C00030009847019B012B37D1039B019A1342BE
:1005D0000ED02D4B4021264898471C22002324484A
:1005E0005100415A0132CB189BB2242AF7D1DF08BF
:1005F000009CAEE7EF805A6140229A619961BFE7A3
:100600002F809A6140229A615961B9E76F809A619F
:1006100040225A61F2E7AF805A6140225A61F3E703
:100620002F819A6140229A619961184B9847002264
:10063000174B1A80174B9847A2E70921164B17480A
:10064000984730000F4B9847A847054B98470094B0
:10065000CEE7C04600440041582E0020A1170000FC
:10066000BD07000064040020E5030000850A0000C7
:10067000622E00201A4000422D0900005918000087
:10068000D5070000D90900009D1900000D040000E5
:100690000E2E002045040000E10B0000B3230000F3
:1006A000802213B5044B009001939200002303496C
:1006B000034C0448A04713BD542E0020BD23000066
:1006C0000D1400004905000010B5114A1378002BE5
:1006D00001D0013B13700F4A1378002B01D0013B6E
:1006E00013700D4A1388002B01D0013B13800B4A75
:1006F0001388002B01D0013B1380094A1388002B7B
:1007000001D0013B13800120064B9847DDE7C0462E
:1007100006000020102E00200E2E002004000020D5
:100720000C2E0020A1170000002313B5802200909A
:1007300001930249024C0348A04713BDC5230000A2
:100740000D140000C90600000122174B1A705A7ED2
:1007500052B2002AFBDB154A1168154A480112689B
:10076000D20E02430720084040010243E020490125
:10077000C000D2B201400A431A850322DA70023A5D
:100780005A700C4A1A615A7E52B2002AFBDB0A4A9E
:100790009A805A7E52B2002AFBDB0F221A765A7ECA
:1007A00052B2002AFBDB7047004000422460800008
:1007B0002060800002180000240400000222044B84
:1007C00019780A431A705A7E52B2002AFBDB70472E
:1007D000004000420221044B1A788A431A705A7E64
:1007E00052B2002AFBDB7047004000420022802109
:1007F0001D4B9A619A8C8A439A841022D9681142BF
:10080000FCD01A4A1168890E3F2900D12039184AB4
:10081000890212689205920D0A439A621022D968E1
:100820001142FCD002229A840E32D9681142FCD0C7
:10083000104A11495160517849B20029FBDB0F4938
:1008400051800F4951800F4951800F4951800F4904
:1008500051800F4951800F4951800F490F4A116251
:1008600000221A627047C0460008004024608000E1
:1008700028608000000C00400007010014400000C8
:10088000164000001A4000001B4000001C40000001
:100890001E40000021400000141D0500000400401F
:1008A0004122054B5A7000229A7002321A70DA798E
:1008B000002AFCD17047C04600480042134B00217B
:1008C0001800134A20305960996019735961996171
:1008D000197750631800403090630E485061100043
:1008E0003F3001700C4951640C4919840121197081
:1008F00001700B4850640B481974188613000231BC
:100900004D331970084B13807047C04670040020A7
:100910000048004181818181001B800009040000A2
:100920000027800009090000020F0000F0B5254FE4
:1009300085B001923C780501E4B20294224C3870F3
:1009400065192D7B0397214E214F002D05D03D7851
:10095000AC466246002592072BD0032501223D704C
:10096000050167193A733A8C520500D5C9187962A6
:100970006519298C0A0523D5019AD218AA620201A9
:10098000A418228C01259205920FD3409BB2638458
:100990000223104A11780B431370726C736C9B0422
:1009A0009B0E06D1130704D42B00834032691343F6
:1009B00033616A462800039B127A1A7005B0F0BDB5
:1009C000019ADBE73F4800417004002000480041E5
:1009D0004E48004140480041022130B5084B094AC9
:1009E0001C7818701578E4B28D4315700D001178DD
:1009F0002940FCD1044A0001101801731C7030BD5D
:100A00003F4800414048004170040020F7B5174AB4
:100A1000174B16780500107000011818007B019222
:100A2000F6B2144F144A002803D014780020A4070B
:100A300019D00320012410702A0198182033047360
:100A4000981810220D4B984702230D4A2000117868
:100A50000B4313707B6C9B049B0E04D12300AB40B3
:100A60003A6913433B61019B1E70FEBD3F48004144
:100A700070040020004800414E480041252100003C
:100A80004048004103010248C0184160826070473D
:100A900070040020F7B50027144B0197198C0F2321
:100AA000134C1940134A2578217013780220DBB2C9
:100AB0000193019BEDB29C460B0161460E4E014233
:100AC00003D0F11810700F7301380121019F0F42FC
:100AD00004D0117000210220F2181173F3185A6823
:100AE000002A01D0996890472570F7BD0048004161
:100AF0003F4800414E48004170040020704700000C
:100B0000BFF35F8F62B6C1200B4B80001A580B49B0
:100B10001140C02212040A431A504022C0211A6018
:100B200004301A5809061202120A0A431A50802287
:100B300012011A607047C04600E100E0FFFF00FFAD
:100B40008222014B5A60704700400041164B174A01
:100B5000190010B502201A601A61012242311C00EE
:100B60000A708870002146342170A270E2702271F0
:100B700062716172A272E27222736273A273E17394
:100B80001900332431310A70CC70113C0C712234BD
:100B9000CC7110340C724F3C4C72B43397310A70E4
:100BA00048701A7010BDC0460044004140802000CB
:100BB000094B0A4A1A60D22252429A81C0229202FA
:100BC0005A60DA69002AFCD1196802320A431A60B5
:100BD000DA69002AFCD17047000800420401314064
:100BE00030B5031E05D0012407250B4A002902D188
:100BF0000123180030BD0139137E2342FCD0536815
:100C00002B40012B03D0037801301385EEE70388D6
:100C100002301385EAE7C046000800420722074B6E
:100C2000598B114206D0802119765A83033A197ED6
:100C3000114200D17047198DF9E7C04600100042FB
:100C4000104A114B1360D2235B429381C0239B0255
:100C50005360D369002BFCD1116802330B4313603E
:100C6000D369002BFCD1094A11002C311362936126
:100C70000B70D36193605362137513605360D3603C
:100C8000D38570470010004204011240D0040020B8
:100C90000022024BD88DDA8580B27047D004002044
:100CA000014BD86019617047D0040020F7B50600E9
:100CB0000191041E13D00B4D00242F002C373B78DC
:100CC000A3420CD1084B9847019B8421EB6101237F
:100CD0002C623B70EC851C00044AAE6191752000CB
:100CE000FEBDC046D00400201D0C000000100042D4
:100CF000014B586299627047D0040020F8B54A4C05
:100D0000A37D002B2BD0237EA27DDBB252B2002A22
:100D100015DA5BB2002B12DA0722638B13400ED078
:100D2000424DEB85424B9847842323752B000022CC
:100D30002C331A706B6A934201D0A86A984701203D
:100D4000237EA27DDBB2024201D0034225D10422E0
:100D5000237EA17DDBB2114201D013423DD1F8BD0B
:100D600062683A40012A0BD09A68511C9960B25CC3
:100D700022859A68217EAA4292410140524219E09E
:100D80009A68511C52009960925BF1E71A6A551CEF
:100D90001D629D695200515335E0244B1A7D002A93
:100DA000D5D09A685D680727AA429241217E1E68C5
:100DB00052420140002901D0002AD1D19A685968D5
:100DC0008A42C4D300221A755A6001322275DA6849
:100DD000002ABCD018699047B9E7144B1A002C328E
:100DE0001278002ABBD01A6AD8698242B7D2072586
:100DF000218D626889B22A40012AC7D01A6A551C1F
:100E00001D629D69A9541A6A9042A8D11900002256
:100E10002C310A70DA61843222755A6A002A9ED017
:100E2000986A90479BE7C04600100042D00400201B
:100E30001D0C000001220A4B1A80DA7B52B2002AF4
:100E4000FBDB084A00211A80FF221A7519765A76B0
:100E5000C43A9A73DA7B52B2002AFBDB7047C04671
:100E6000002C0042440500000222044B19880A436A
:100E70001A80DA7B52B2002AFBDB7047002C00425A
:100E8000034B1876DA7B52B2002AFBDB7047C04670
:100E9000002C004201220A4B1A80DA7B52B2002A4F
:100EA000FBDBAC22D2001A805D221A83223A9A73AD
:100EB000C5325A81DA7B52B2002AFBDB7047C0464A
:100EC000003000420222044B19880A431A80DA7B60
:100ED00052B2002AFBDB7047003000420121094B6F
:100EE00019609A680A40FCD1C0218900196002216A
:100EF000D9635A649A64FF22D2001A649A68002A5D
:100F0000FCD17047002800420222044B19681143AB
:100F1000196099681142FCD17047C0460028004210
:100F200001210D4B19609A680A40FCD1C02189004B
:100F300019605A6158690949014359610849D963DF
:100F40005A649A64DA641A65FF22D2001A649A68B5
:100F5000002AFCD17047C04600200042000F4040EC
:100F6000020000040222044B1968114319609968B9
:100F70001142FCD17047C046002000420622104BAF
:100F800010B55A600F4B98470F4B98470F4B984737
:100F90000F4B98470F4B98470F4B98470F4B98476D
:100FA0000F4B98470F4B98470F4B98470F4B98475D
:100FB0000F4B98470F4B98470F4B984710BDC046B3
:100FC000004000414D0B0000ED070000410B000008
:100FD000410C0000FD0A0000B10B0000BD0800003C
:100FE00049070000350E0000A1080000950E000022
:100FF000DD0E0000210F0000010B0000FEE7FEE700
:10100000FEE700001648174970B5884204D0002357
:10101000154CCA18A2421CD30021144B144A934207
:101020001BD3FF21134B144A8B4393600222134BB3
:101030005A62134B0832DA70124B20329A738023B3
:10104000114A51680B435360104B9847104B984717
:10105000FEE7C55804331560DBE702C3DFE7C0468F
:10106000901A0200000000203404002040040020F8
:10107000602F00200000000000ED00E0FC70004147
:10108000005000410048004100400041DD200000C8
:10109000891E000072B6FEE772B6FEE7002382B03A
:1010A000019372B6019B002BFCD002B07047000088
:1010B0000B4A13681868203080F30988022080F3F7
:1010C0001488BFF36F8F3FBCAE4608BC04BC62B649
:1010D0001847C046C046C046C046C046C046C04687
:1010E000142D002010B58024031F64041C60043BF1
:1010F00019600349043B1960143B40381A6010BD65
:101100009D100000704700008022044B52051A60B9
:10111000BFF34F8FBFF36F8F7047C04604ED00E001
:1011200072B6044A136801331360BFF34F8FBFF3E5
:101130006F8F704700000020034A1368013B136063
:10114000002B00D162B6704700000020EFF3108042
:1011500072B6704780F310887047000000000000EE
:10116000EFF309800E4B1A6820381060F0C0444637
:101170004D4656465F46F0C008B572B600F02AFBF1
:1011800062B60CBC116808681030F0C8A046A946C9
:10119000B246BB4680F309882038F0C81847C046DD
:1011A000142D002010B5074B9847074B04009847B3
:1011B000002803D08022054B52051A602000044B02
:1011C000984710BD4D1100000916000004ED00E025
:1011D000551100000022054B05491A600A600549B7
:1011E000054A116007221A607047C04610E000E00F
:1011F00018E000E07FBB000014E000E0FF220C4B91
:101200001204196810B50A431A60FF2200241968F5
:1012100012060A431A60074B9847074B1C60074B9E
:101220009847074B9847074B9847200010BDC0468A
:1012300020ED00E0D511000000000020B1100000FA
:10124000D51700009D100000072370B50400184258
:1012500001D09C4308340F4B98470F4B1A68002A63
:1012600004D11A0007210C328A431A600B490C483A
:101270004A680025A418844204D8A24202D21D68FC
:101280004C60AD18074B9847002D01D1064B98478D
:10129000280070BDF915000000050020002D002079
:1012A000F7270000DD1600009910000070470300CA
:1012B000012208334360C36003610023524282600D
:1012C0000360704700230361704743689A684B606E
:1012D0008A609A685160996003680861013303600D
:1012E000704703000A6830B50833541C0BD10369FA
:1012F0005A684A6091608B605960036808610133E5
:10130000036030BD23005C682568AA42FAD2EFE78B
:101310004168826803698A608268516059688842BE
:1013200000D15A60002202611A68013A1A601868F6
:1013300070470000064B1A681268002A02D1013A71
:101340005A6070471A68D268D2685268F8E7C04697
:10135000082D0020F8B50500124C134BA668E06874
:101360000F00043098476B1C08D1002F06D02000D6
:10137000E1680E4B043110309847F8BDE3687519E9
:101380005D600B4BAE4203D9606AE1680431F3E75C
:101390002068E1680431984763689D42EDD265603A
:1013A000EBE7C046082D002011130000CB1200000F
:1013B000E312000070B50F4C236C002B05D1636C59
:1013C000012BF8D90C4B9847F5E70C4B9847636B0A
:1013D000DD680B4B281D9847E36B013BE363236CEF
:1013E000013B2364074B9847286B074CA047280014
:1013F000A047E0E7082D002009110000211100009E
:101400001113000039110000AD120000F0B5970073
:1014100085B00190574C38000D000293A047061E7E
:1014200019D05420A047041E12D006633A00524B34
:10143000A52130009847236B3A1F9A1807239A4337
:10144000002300929D4209D1230034331D7013E024
:1014500030004A4B9847012676427DE01A00E95C4D
:101460003432A154EA5C002A02D00133102BF5D1AA
:101470002300002243331A700A9D042D00D904254D
:101480000027231D1800E56265643D4EA7640393A1
:10149000B04720001830B04705235D1B23005033B0
:1014A0002461A5616462E764029A1F700199354B5B
:1014B000009898470B9B2060BB4200D01C60324BC9
:1014C0009847324DEB6B0133EB63EB68002B46D151
:1014D000EC60EB6B012B21D128002D4E4430B0473E
:1014E00028005830B04728006C30B04728008030C2
:1014F000B04728009430B047264F2748B0472748C8
:10150000B04738005030B04728002830B047280096
:101510001030B047204B2B60204B6B621D4EE26AAF
:10152000B36E0133B366F36E9A4200D9F2661423A8
:10153000280053434430C018211D194B9847194BBC
:101540009847736E0126002B06D0EB68DA6AE36ACF
:101550009A4201D2144B9847300005B0F0BD0D4BB4
:101560005B6E002BDAD1EB68E26ADB6A9342D5D876
:10157000EC60D3E749120000A9210000AD12000081
:10158000C5120000E510000021110000082D002008
:10159000AF120000882D0020B02D0020C42D0020A7
:1015A000CB120000391100000911000073B50C4D79
:1015B00000242B00703301930094230080220949FA
:1015C00009480A4EB047012808D172B60122084BDB
:1015D00052425A6068669C60064B984773BDC0468D
:1015E000882D0020D0230000B51300000D1400004A
:1015F000082D0020FD110000024A536F013353678C
:101600007047C046882D0020F7B52E4C636F002B25
:1016100052D12D4DAB6801330093AB60002B08D144
:101620002B686A6A2A606B62A36F0133A367274B3A
:1016300098476B68009A00279A4206D3224E336877
:101640001B68002B11D1013B73601F4BDA68D16A14
:1016500014224A439B185B6C012B00D90127E36FCE
:10166000002B00D001273800FEBD3368009ADB68EC
:10167000DD686B689A42E7D32B1D01931800144B69
:101680009847AB6A002B03D02800114B18309847BD
:10169000EB6AE26E934200D9E366142230005343B2
:1016A0004430C018291D0B4B9847F368EA6ADB6A7F
:1016B0009A42C3D30127C1E7074A002713680133C1
:1016C0001360D0E7882D0020082D0020351300007E
:1016D00011130000CB120000082E0020F7B5264B96
:1016E0009847264C636F013B6367656F002D04D0FC
:1016F0000024234B98472000FEBD224EF36B002BA5
:10170000F6D0236D002B18D1002D01D01E4B984729
:101710001E4E3568002D09D001271D4B9847002823
:1017200000D0E767013D002DF7D13560E36F002B56
:10173000DED0184B98470124DBE7E36D164FDD68D8
:1017400028001830B8472B1D18000193B847EB6AE2
:10175000E26E934200D9E3661422300053434430D2
:10176000C018291D0D4B9847F368EA6ADB6A9A4254
:10177000C7D30123E367C4E721110000882D0020AF
:1017800039110000082D002035130000082E00201C
:10179000091600000911000011130000CB1200000F
:1017A00010B5041E02D1074B984710BD064B984751
:1017B000064B002120009847054B98470028F4D19C
:1017C000F1E7C04609110000F915000055130000AB
:1017D000DD16000070B51C4D6B6F002B02D001238D
:1017E000EB6770BD194CEB67E36819491B6B1A680E
:1017F0008A4208D15968914205D19A688A4202D139
:10180000DB68934204D0E068E168124B34319847BA
:101810001426EA6E33005343E118486C002810D0B8
:101820000B00886C4C3340688864984201D143684F
:101830008B6414235343E3189B6CDB68E360EA6614
:10184000CFE7013AE6E7C046882D0020082D0020AA
:10185000A5A5A5A595100000F7B51B4E1F0000908B
:1018600001911500B047194CE36850331B78022BE7
:101870000FD0E2680099D36C8B430121D364E368F5
:1018800050331970002F04D0114B38009847114B7A
:101890009847114FB847B047002D02D0E368DB6C82
:1018A0002B60E368002550331B78022B05D1E268DA
:1018B0000199D36C01358B43D3640022E368503324
:1018C0001A70B8472800FEBD21110000082D002025
:1018D000551300000911000039110000F7B51D0073
:1018E000284B04000F00160098470190002D01D0EE
:1018F000E36C2B602200022150321378701EDBB2A1
:10190000117003280AD800F0F3FA0206040DE26C05
:101910001743E76402E0E26C0132E264012B09D074
:10192000012502E00025022BF3D10198164B9847C0
:101930002800FEBD154D164F6B6F002B1CD1261DC8
:10194000144B30009847E26AEB6E9A4200D9EA667F
:1019500014233800310053434430C0180E4B9847CD
:10196000FB68E26ADB6A9A42DAD9089A0123002A04
:1019700000D01360EB67D3E7280021005030183106
:10198000ECE7C0464D11000055110000882D0020E5
:10199000082D002011130000CB1200000123013993
:1019A0000A009C46F0B58B1A994211DD0025030010
:1019B0002C0008E01E885F88BE4202D965461F8061
:1019C0005E80013402339442F4DB013A002DEAD107
:1019D000F0BD0000F0B50288C388060085B0002085
:1019E000934201D8D01A80B272880024934201D861
:1019F000D41AA4B20022B7880092BB4202D8FF1AC0
:101A0000BAB2009232890025934201D8D51AADB2FC
:101A1000642729002F4B3581784398476B46029005
:101A20001B89200001936B469B88290033807843F3
:101A3000284B984783B203936B4604009B89009818
:101A4000738029007843234B98470621B080C72D27
:101A50003DD9029A01990304A0B21204814204D92B
:101A6000DE0B100C0121864231DB1B0C5800120CDE
:101A70002404904209DA03215943260CB14204DAC6
:101A8000C82605217600B54221D803215143240CF4
:101A9000A14206DAA04204DA9026FF360221B542BE
:101AA00015D951008C46994204DA9F006600032143
:101AB000B7420CDC0621904209DD9C4507DD92000F
:101AC000A24204DD96239B009D4200D90239080002
:101AD00005B0F0BD051F00000020704700487047AA
:101AE000A8F4010000207047002070476020704774
:101AF0000020704760207047882040007047002019
:101B00007047000010B5114B040000209847092CC5
:101B100016D80F4B0F49A0000B800F4B0F4CC2582B
:101B20000F4BA2420DD9012252424A8022001B587B
:101B30009B184B600B4BC96000208B600A4B984789
:101B400010BD94B24C801B58F2E7C046D909000082
:101B500009240000202E00200C2F0020FFFF000091
:101B6000E42E00200C4800420D0A000070B501254B
:101B70001B4B1C4A1C4C1A601C4A25605A601C4AAC
:101B80009A601C4ADA601C4A1A611C4A5A611C4A53
:101B90009A611C4ADA611C4A1A621C4A5A621C4B3E
:101BA00098471C4B606098471B4BA06098471B4BA5
:101BB000E06098471A4B206198471A4B606198473C
:101BC000194BA0619847194BE0619847184B206268
:101BD0009847184B606298472800174B984770BD8C
:101BE000E42E0020D52300000C2F0020D623000077
:101BF000D6230000DE180200DE1802007E18020064
:101C00007E1802007E1802003E1902004E1A0200E1
:101C1000DD1A0000D91A0000F11A0000F51A0000C0
:101C2000ED1A0000E51A0000E91A0000F91A000098
:101C3000FF1A0000C50E0000051B000030B5084C5F
:101C40000300226B1030C240012500202A4205D13A
:101C5000280009021C33090A9B00195130BDC046F7
:101C60000020004210B5054B9847054C0021032089
:101C7000A04700210220A04710BDC046650F00000C
:101C80003D1C00000C4B70B505000C009870D9701D
:101C9000012807D100210320084DA847E1000220B8
:101CA000A84770BD0028FCD1C900044C0320A04700
:101CB00029000220A047F4E7342F00203D1C00003B
:101CC00010B50B4B987801280ED1DB78962B09D0F4
:101CD000C82B03D0002B04D1962100E0FF21054B37
:101CE000984710BDC821FAE796210120F7E7C046C2
:101CF000342F0020851C000010B596210020014BD8
:101D0000984710BD851C000010B500210120014B33
:101D1000984710BD851C000010B50A4BDA78C82A18
:101D20000CD0FF2A04D0962A07D1074B984704E02D
:101D30000220C8211856054B984710BD0220962155
:101D40001856F8E7342F0020091D0000851C0000FC
:101D5000014B98787047C046342F002030B5074DAE
:101D600003002A6B1030C24001240020224203D11C
:101D700020001C339B00595130BDC0460028004252
:101D800010B5074B002098470021064C0800A047DB
:101D900000210120A047044B9847044B984710BDF1
:101DA000810E00005D1D0000090F0000690E00009B
:101DB00070B50D000400054B10009847E9000020A5
:101DC000034DA847E1000120A84770BD810E000027
:101DD0005D1D0000013810B50E4B042817D800F027
:101DE00087F803070C10130000221100FF2002E007
:101DF0000022FF211000984710BDFF22002108009B
:101E0000F9E7FF221100FAE70022C821EEE70022DD
:101E1000F8E7C046B11D0000104B30B5186801232B
:101E20000F49400A18400F4A0870126A4D7812098B
:101E30001A400D4CAA420AD0C8225B1B4B700B4BB8
:101E400022701B780130002B00D0002030BD237899
:101E5000002BFAD18B700320F8E7C046A044004164
:101E6000382F00200044004106000020102E0020E2
:101E7000C822014B1A707047102E0020C822014B57
:101E80001A7070470600002010B500200D4B9847CF
:101E900019210D4B0D4898470D4B98470D4B98470E
:101EA0000D4B984703200D4B984703200C4B984748
:101EB00002200C4B98470C4B042098470B4B98473B
:101EC000FEE7C0467D0F0000E10B00004E1A020045
:101ED000811D0000651C00006D1B0000F902000060
:101EE000A1060000BD03000029070000AD15000099
:101EF00002B4714649084900095C49008E4402BC9D
:101F00007047C04603460B437FD4002243088B42F0
:101F100074D303098B425FD3030A8B4244D3030B70
:101F20008B4228D3030C8B420DD3FF22090212BA35
:101F3000030C8B4202D31212090265D0030B8B42B1
:101F400019D300E0090AC30B8B4201D3CB03C01A9B
:101F50005241830B8B4201D38B03C01A5241430B76
:101F60008B4201D34B03C01A5241030B8B4201D366
:101F70000B03C01A5241C30A8B4201D3CB02C01AD1
:101F80005241830A8B4201D38B02C01A5241430A49
:101F90008B4201D34B02C01A5241030A8B4201D338
:101FA0000B02C01A5241CDD2C3098B4201D3CB01DF
:101FB000C01A524183098B4201D38B01C01A52418E
:101FC00043098B4201D34B01C01A524103098B4292
:101FD00001D30B01C01A5241C3088B4201D3CB007D
:101FE000C01A524183088B4201D38B00C01A524160
:101FF00043088B4201D34B00C01A5241411A00D210
:1020000001465241104670475DE0CA0F00D0494278
:10201000031000D34042534000229C4603098B42E8
:102020002DD3030A8B4212D3FC22890112BA030A70
:102030008B420CD3890192118B4208D389019211F2
:102040008B4204D389013AD0921100E08909C30977
:102050008B4201D3CB01C01A524183098B4201D379
:102060008B01C01A524143098B4201D34B01C01A64
:10207000524103098B4201D30B01C01A5241C308DC
:102080008B4201D3CB00C01A524183088B4201D34B
:102090008B00C01A5241D9D243088B4201D34B0066
:1020A000C01A5241411A00D20146634652415B10A8
:1020B000104601D34042002B00D549427047634689
:1020C0005B1000D3404201B5002000F005F802BDCE
:1020D0000029F8D016E770477047C04670B50D4E1E
:1020E0000D4D0024AD1BAD1005D0A300F3580134F5
:1020F0009847A542F9D11FF0B9FC084E084D0024BD
:10210000AD1BAD1005D0A300F35801349847A5428C
:10211000F9D170BD781A0200781A0200781A02000C
:10212000801A0200F0B505000F2A2FD90B000343D7
:102130009B0734D116000C000300103E3509013511
:102140002D01451927681F6067685F60A7689F6059
:10215000E7681034DF6010339D42F3D10F239E43B4
:102160001036851989191340032B1AD91E1F002315
:10217000B4080134A400CF58EF500433A342FAD17D
:102180000324A643331D2240C918ED18002A05D0A8
:102190000023CC5CEC5401339342FAD1F0BD05002E
:1021A000F6E71A00F2E7C046F0B5830743D0541EA5
:1021B000002A3FD0CEB20200032502E01A00013C03
:1021C00038D3531C16702B42F8D1032C2AD9FF2286
:1021D0000A40150215432A0415430F2C14D9270071
:1021E0001A00103F3E09013636019E1915605560F0
:1021F0009560D56010329642F8D10F229743103780
:10220000DB191440032C0DD91A00271FBE08013614
:10221000B6009E1920C2B242FCD103229743043774
:10222000DB191440002C05D0C9B21C1919700133F8
:102230009C42FBD1F0BD14000300C6E7034B10B570
:10224000002B02D0024800F005F810BD000000008D
:102250006522000010B5010000230022002000F0DC
:102260001FF810BD70B5094B094CE41AA41009D031
:10227000084AA518AD00ED182B68013C9847043DAD
:10228000002CF9D11FF0FCFB70BDC0468C1A020077
:10229000901A0200FFFFFF3F7047C0467047C046DC
:1022A000F0B54E464546DE465746E0B5364D83B05E
:1022B0000600286898460F009146FFF7EDFF334B64
:1022C0001C68A4235B00E058002852D043681F2BF1
:1022D00013DC5A1C0192002E28D1019A02339B0074
:1022E00042601F502868FFF7D9FF002003B03CBCB4
:1022F00090469946A246AB46F0BD254B002B3DD0FB
:10230000C820400000E000BF002837D0A4220023EE
:102310005200A15843600160A05040328350043203
:102320008350013301930023002ED6D09A009246A9
:1023300082444A46882154466250C4225200914643
:1023400081444A468739994012688B460A4394462D
:102350004A4661461160842241465200A150022E35
:10236000BBD102005C468D32FF3211680C43146011
:10237000B3E720004D30FF30E050A7E72868FFF7B3
:102380008DFF01204042B1E730040020681A0200AE
:1023900000000000626C650A00626C655F74617326
:1023A0006B0068616C6C5F73656E736F725F7461F4
:1023B000736B004144436E4661696C0A0070645F50
:1023C0007461736B0074696D65725F7461736B0027
:1023D00049444C45000052494646A0F4010057418B
:1023E0005645666D74201000000001000100401F7A
:1023F0000000401F000001000800646174617CF46B
:1024000001007D817E817C83828A8181757A7881D9
:102410008082807C989C8B30437DD5B580433A7711
:10242000C4BD6F4C4FACBF9B453477D2A791452BB1
:102430005FA5C791544B86AFC983391F7DAEC88A4B
:1024400057618CAF88763C689DA5A4684C84AB9A94
:10245000624364B0CA8143356AC6D39E51216FB7C7
:10246000B3884C418AC4AF843B3794CAAA662C69AE
:10247000C6C5A148156BC8CD8E282B9BD3C0701C38
:102480003CAFDEB0541663C9DCA22B1881CAC784E6
:10249000273799C8B669265BB5BF954D3C89BCB056
:1024A0008036429BC2AB6A305CB0B8975A3D81BA65
:1024B000B07D39409AC3AE77334DA1B9A26839696E
:1024C000ABB89B503D84B3AF84424D99B8AA6E34EB
:1024D00063ABB598543F83AFAA86494E97B8A46DB5
:1024E000355FAAB49C5A3979B5B6873F3D90BEB3E3
:1024F0007A3653A5BDA060366FB2B7954D3C82B019
:10250000A97E44549CB1A06E3D6BACAC8F55448801
:10251000AFA07C45529EB49A6B3C66A9AA945C3EDF
:102520007CB2AD8747428BB2AB803C529DB49F6377
:10253000376AA9B297533F83B1AB81435299B1A097
:102540006A3A68ACB091533F83B4AA80434E9BBBB8
:10255000A26A365EA8B296573A7AB4B08647438BE1
:10256000B5AC7E40569DB19C663F6EA8AE93574574
:1025700083ADA3804C5997A9996D4369A8AB8F5C33
:102580004580ACA5844B4E96B7A3713B5BA2B09A35
:102590005F3A71ADB28F4C3F84B4B1833F4E96B475
:1025A000A4693963A3B399563E7FB1AB814955986D
:1025B000AF9B693E68ABB28F594581B1A67F474C4E
:1025C00094B9A4703D5AA1B39B623E71AFB28E51D3
:1025D0004282AFA982485394AE9D6F4569A1A994E8
:1025E0005C457FACA4824E5695AD9C6F4265A8B108
:1025F000935A417AACA8844A4A8FB7A8763F579C31
:10260000B4A0663E6CABB290534382B1AC814852E9
:1026100095B19A6A466CA6AC8E5B4881AFA37C519B
:102620005A98B0976C4768A9B08F604A7DAEA7836F
:10263000524E8FB6A377485A9AAF9B6A456CA8AEA4
:102640008F5D4C82ACA783515792AC9B714D6DA3AB
:10265000AA8F5E4B80AFA681525692AF9C6E4462A9
:10266000A6B494624777ACAA85514D8DB6A577493B
:102670005A98AE9969476DA8AE8C5B4B81ACA47E2D
:10268000515995AD976E4E6DA3A8895F4F80ADA14E
:102690007F57598FAB98704C65A2AF91654A73A66E
:1026A000A787564E87B2A67B4D5995AE9C6D4A6B57
:1026B000A3AD8E5C4C7EAAA47F525791AD9B704E09
:1026C0006BA1AC8D5E4D7EAEA57E535891AE9B6DD9
:1026D0004863A2B392614975A9A986554F88B2A5EE
:1026E000794C5A96AD9869496DA3AA8C5D4F81AB20
:1026F000A37F525A94AC986F4E6CA0A88C5D4B7E11
:10270000ADA68253558EAD9D704660A0B4996445C8
:1027100071A5AB8B534C86B2AA7D495895B09E6A81
:10272000466DA4AE8F594D80ABA7804F5A94AD9C97
:102730006E4B6CA0AA8D5A4C80ADA88150558FACC1
:102740009E6E46659FB198634874A3AA8B544F85CB
:10275000ACA77C4C5B91AB9D6D4B6D9FAA8F5A4F84
:1027600080A7A57E515D93AC9D6C4A6B9EAD905940
:102770004A7BABAE864F5289AEA771445F99B49F36
:1027800063466E9FAF8E524E82A9AA7B4A5D8FAC84
:10279000A16A4B6D9CAA9057507FA4A77E505E8F74
:1027A000A79E6E4D6D99A9915C507DA4AA86525644
:1027B00087A6A271496496AE9D664B709CAB8E57FE
:1027C0005281A6A97E4E5D8DA9A06D4D6E9BAB92E8
:1027D0005A517CA3AA81505B8CA8A16F4A6897AB21
:1027E000945C4F7BA3AB88525586A7A4734A659629
:1027F000AD9C644B729DAB8C575484A6A57A4D60FA
:102800008EA89D6C4E709BA8905C527EA3A78153AE
:102810005C8BA69F724E6996AA96635279A1A9888D
:10282000565684A6A4764E6491AA9D6A4F6F9AAAC2
:102830008F5B5480A4A67D505E8CA99E6E506D99CE
:10284000A8905E547EA3A681555D8BA69D714F69AD
:1028500096A992615179A1A887585885A6A1754F6C
:102860006493AA9969506F9BA98D5D5780A2A47E3D
:1028700055608BA79C70546D95A59061557BA0A564
:1028800083595E88A49E74506592A7956451759D86
:10289000A88B5B5581A4A37A526290A79A6C516F62
:1028A00099A78E615780A3A27F555F8DA699705519
:1028B0006E97A38E62567CA1A1825B608AA29B76F2
:1028C000546793A4916655769CA3885D5881A3A113
:1028D0007B56628EA7996E536D97A68F63577B9E2A
:1028E000A282595F89A69D75566A92A39264547715
:1028F0009DA3845C5E87A39D76546693A7946654DB
:10290000749CA6895C577FA2A27C56628CA69B6EA3
:10291000546D96A69065597B9DA2825A6088A39CAF
:1029200075596C92A2916757779DA2845D5F84A1CF
:102930009E7956648EA5966B557198A68C60577BD0
:10294000A0A581595F88A39A70536891A391675895
:102950007798A0825B5F86A29B775A6B90A2916862
:1029600058779AA2855F5F839F9C7857658FA5975C
:102970006D587297A58C62597B9EA3825B6186A17C
:102980009A74586A8FA2926B5C78989E825F618578
:102990009E98755A6B8F9F8E6859779AA1845E5E58
:1029A00082A19E7957658EA6986B566F95A58C610E
:1029B000587A9EA4805B6387A19A71586B90A4910A
:1029C000695C799AA1825E6286A09A74596B90A321
:1029D000906656769CA3835E5D83A1A07856638D36
:1029E000A6976C576F94A68C6256789CA6805E6002
:1029F00086A19E72586691A7946A597897A78166B6
:102A00005896B5A9451F65D1D595552168B1CD77A3
:102A10004C49ACC693582E5EC8C290592C6C9BC1D1
:102A200093574F7D9FC594543A6895A2966C6D89D3
:102A3000A9726B5C68B09B8977527FAD9A694A5ED8
:102A4000A1C08D53395BADC7A0764765A8A78E6539
:102A50004174BFB08D572D75B5AB844646A1C1A852
:102A600079344AA4BDA258237AC5B88B43388CC6A2
:102A7000AD743349B0CCAB622063BBB994462A85B0
:102A8000BEAE8240429CC0A16D3664B4B3975A3743
:102A90007AADAA8B4D438DB2A07D4A65A5A3895C12
:102AA0004080B5A889504389AF9E7F4E5EA2AF9902
:102AB0006A4073ACA992594180ADA58549488FB24F
:102AC000A7784160A1AA96674A7AA8A489564E8F32
:102AD000AE9C7A4A60A0AB91604378B1A988564811
:102AE0008AB19D784859A2B2966B456FA9A68B5BB7
:102AF0004784AE9D80525698AB97754B69A6A78FB9
:102B000061497FAE9E7E535295AD94754B64A5AAE4
:102B100091654575B0A98B574686AFA27E46519CFC
:102B2000B39C6D4168A8AE945B417EB1A8814B4EC9
:102B300097B59E714161A6AE935F427AB0A7824C71
:102B40004791B6A173415DA4AF92613F73B0AC8A67
:102B5000534687ADA27C46559CB39D6A3E67A8B09C
:102B6000945A407CADA9864B4C91B4A4733E5AA0B4
:102B7000B29A623F74AEAF8B4D458AB6AA7B41577D
:102B80009EB69E643A69AFB8914F3D81B6B180411F
:102B90004D98BCA969365EA7BD9C553979B5B786F5
:102BA000434890BBAE733C5A9FB9A15E3C6FADB930
:102BB0008E4B4485B5B07A405699B7A2633D6BA958
:102BC000B99553437DB0B381454F92B7AA6E3D5E30
:102BD0009FBCA25C3F72AABA8E494686B6B3783FC4
:102BE0005797B8A562406EA6B8924F477EAFB580A2
:102BF000445391B7A8653F67A1BB9B564476AAB7DB
:102C0000874A5188B3AF73445D94B5A16349709E00
:102C1000B08E53507FAAAE7D4B5A8CAEA369486AE2
:102C20009AAF945A4E78A3B087515684A9A8744B92
:102C30006291B1A0654D6E9BAF8F59567EA5AD7D5B
:102C40004F5C89AFA46C4D6897B1955A4E77A4B18B
:102C500085535883A9A8754F6390AF9D66517099AD
:102C6000AD8F5E597D9FA67D556289A8A16F536B7C
:102C700094AB936056799EA883565C81A4A5785541
:102C80006389A79C6A526A95AE946156759CA98423
:102C9000595D80A3A27556658CAA9969567097A74D
:102CA000895D5B7C9FA47C576085A69D6F566B9366
:102CB000AA916156769EAA855B5E80A1A177576432
:102CC00088A89C6D586C91A68E635B779AA4835FED
:102CD0006381A09F785D6A8BA4946B5D7596A488D0
:102CE000615F7D9DA07C5B6587A39A6E576A93ABFD
:102CF000946758749BA7865D5C7FA3A37B5A628709
:102D0000A4996E586E95A68D645C7A9BA0805D62D6
:102D1000859F97725A6B91A38F6759759AA2845FAA
:102D20005E81A29D7759658DA6986E576C94A48C90
:102D300063597A9FA4835D5E82A19C7557678FA6B5
:102D4000946956739AA6885E5B81A29E7757668FB8
:102D5000A6956A557099A78A5E577CA3A37A525D9F
:102D60008BAB9E6F506795AA92605174A1AC875847
:102D70005781A4A27754648FA8986A537098A68B41
:102D8000605A7DA0A17B55628DA89A6B526E99AA5C
:102D900090605478A0A981535885AAA67651618E77
:102DA000AA9A67506F9BAE8E5C557A9FA57C545F44
:102DB0008AA79B6B516E98A78C5F597FA1A37D5505
:102DC000608DA99C6D4F6B99AB92605178A2AA85DA
:102DD000545785AAA879505F8DAA9D694E6E9BAD08
:102DE000915D537BA0A57F55618DA79D6E526E9915
:102DF000A98F60567CA0A37F555D8AA9A1724F65FB
:102E000094AD99654D6F9FAE8956527FAAAA7C51A9
:102E10005E8CAA9D6A506D99AC905F557CA0A47F92
:102E200057638EA79A6B526F9BA98C5E567CA1A4A8
:102E300080565B88A79F73526792AA996851709CCD
:102E4000AB8C5A547FA8A97E535E8CA99C6B516FA2
:102E50009AAA905E567DA2A57F55608DA89D6E5062
:102E60006B98AB92605279A1A983525785A9A3713F
:102E70004C6292AE9B644C6F9EAE8C57557FA6A958
:102E80007C515E8AA89E6B506E98AA905E567C9F7D
:102E9000A48057618BA59B6E516C96A99161547A61
:102EA000A0A784555A86A8A4764F6291AC9C684E20
:102EB0006D9BAC8E5A537CA4A880555F8BA89E6EE8
:102EC000536E98A88F60567CA0A37E57618DA79AF9
:102ED0006C516C99AA905F5378A1A983555884A925
:102EE000A5754F6291AC9B68506F9AAB8D5C567D17
:102EF000A2A77F566089A49A6E557095A48E615AD8
:102F00007D9DA1805B638AA39B72556D97A8926596
:102F100058799FA685585983A6A37854638FA99B97
:102F20006D546E97A68D625A7E9F9F7D5B658CA2C5
:102F3000956F5A7398A289625C809F9D7C5B648BBD
:102F4000A3976F566C97A8906558789EA5845B5B95
:102F500082A4A07758668EA5956B587298A3876156
:102F600060819F9C795B698EA1906A5B7698A2864E
:102F70005F5C81A39F7858638CA7986B546C97A96A
:102F80008D6158789FA480585D84A59E7357699180
:102F9000A792665A769BA3825D6184A19A73596B4E
:102FA00092A48D655B789BA2825D5F83A49F775A14
:102FB000668DA7976B576E97A78B625C7A9FA47EEE
:102FC0005B6084A39B725B6A8FA38F695E7698A017
:102FD000826366839D9875606D8EA08C696077981A
:102FE0009F82616182A09C775E698DA4936C5B7007
:102FF00095A489655F7A9C9F7C5E6485A1967360C9
:1030000070909F8B6A627A989B7F6568859C9373AA
:1030100062708F9D8A6A6379979B7F6365839E97B1
:1030200077616B8B9F8F6E6073939E8769657C97CA
:10303000987D6467839A917566728C988B74707DA5
:103040008F8E7B676C818C857169758A94896F6DB1
:10305000859D9F8A71738D9D8D6C5A647C8A816673
:1030600061748B998F7A7A8EA1A18C797381867E17
:103070006C5F69797E746A7289A1A08E82848F9355
:1030800085706262727F7667667D989C8C7B809B80
:10309000AC9E7E68606D7D76655A6682908A828974
:1030A0009DA59F907F777A8076665D5F707873705C
:1030B0007D97A5A1968E8F918E816D5E61727869E4
:1030C0005B5F79939B958F949BA09987736A727BC2
:1030D000726158617582888C93989A9C988F837DD1
:1030E0007C746B65676D6B676E80949B9993919010
:1030F000918E83756A6B7474696063768A9293911A
:10310000919498968A796F7176726B64666D75800A
:103110008D96989492928F898079726D6C6E706A98
:10312000656C7E909898949293938F83786F6D726C
:1031300074706A666C7A89969C999390919087795D
:10314000706C6E72726F69687488999C9590919496
:1031500090857770707174746D676C7988909599AB
:103160009A968E87817C76706C6C70716F6F717BB4
:103170008E9EA0968C8A8E8B7D6F66687177756A3D
:103180006571889899918F95999383746F72747211
:103190006D6667727F85878F9BA09A8E8481817D03
:1031A0007369666C73756F6A748EA3A39386899234
:1031B00092826F6468757D74625C6E8A98948A8C62
:1031C000979F9783716D747B776A6165747F818146
:1031D0008B9BA39C8D807F8584796A616A787B6FE5
:1031E000646E8BA4A59484869399887162667681B7
:1031F0007662596D8A9993888C9AA29A86716F75B6
:1032000081796D5F6975838A93866C7190C0C0B750
:103210007434315A87ABAC8A5A273D88C3E6C168FB
:1032200054698598A1946F45465A7CABAD84483665
:1032300059B1E7ECB8682E1D5EA7D7B45D2A1048D7
:10324000A6DFDF8B483570C8D8C283340C319BE4CD
:10325000E0850B002CB9FFFFB12C12509AD2CF9011
:10326000410C2169BAE6C052132487F7FFD56613D3
:103270001C6BBBD8A24D11145BB9D5CE9941476CDC
:10328000B7E4CB923D0A2281D2DE8B1B00279BFF45
:10329000FFB95017569CD1D7974013165AACD6CCCD
:1032A0007B231359CBFFFF8D1D0550A5D8BD651796
:1032B0000843ACD6C39869525893CEEBBE5D110259
:1032C00054C3EEAC34000B7FFFFFC15D365C8CBD98
:1032D000C19E5D3829387DC1DE9B280440C9FFFFAF
:1032E0009822074F9DD6BE6C2113478CB7BDAD8188
:1032F000594978CDFFD3680E004CBBF1B242000FA4
:103300006EDBFBCC7C4D5976ABC3B07748241F6C89
:10331000C3EDAC2F0030B7FFFFA734165391C6BAE8
:103320007832274478A9BDB68453406DCBFFDA715B
:10333000170242A4E2BA5812175EC2E6C88F675855
:103340006594BDC39350160B5BC4F4BA3D0024A131
:10335000FFFFB751294779B1BB8D502C31569BC91E
:10336000D3964A3058C0FFE88925013591D6C26E00
:10337000261650ADE0D19C6959618CB6C6A75B1981
:10338000074AB3F4C75205228DEFFFC35E324A717C
:10339000A9BB995D342C468CC8E4AA4B284EB4FFD7
:1033A000EE9830062E82CCC77A301C4898D1D4B221
:1033B00078595679B2D0BC68180039A4F0D0671794
:1033C0001E74D5FFD77B3A3D5C9BBFAC6F36223372
:1033D0007EC1E7B95927429EF3F5A8450E266DBE7A
:1033E000CA8E411E3A83C5D5BD86615166A0D1C93A
:1033F000802600218EECDB7D211863C5FBDD8A4A27
:10340000415689B3B48347222364BDF2CA65243789
:1034100092EAF4B6571A2360ACC399572A376AAFB9
:10342000D9D3965E49599DD4D1892E001E7EDCDA0F
:103430008C382059B0ECE29F5746517CACB7925380
:10344000251C53B1F1D77B2A2E7FDBF7C2642122E2
:1034500054A0BFA26431355FA0D1DBAB69454C8E6F
:10346000D6DC993A01156CCFDB984428529EDADFFE
:10347000B2724E46619BBFAD6F260A39A5F5E28A4E
:10348000302671CEF6CD752F224990BBAD794031F3
:103490004B8AD0E6BA6E3D4384CEDAA44D0D135C60
:1034A000BCD8A3582E4A8ED0E4BC78514A5990BC5F
:1034B000B47C300D2D91E9E2953C2668C0EED07FBA
:1034C0003B2A4983B1AD86533B3E6EBEEECF7E387C
:1034D0003275C9E0B05D151351B2CFAC633D468083
:1034E000B5DDC59056474A83BCBD9039141E89D0BE
:1034F000EF92611582B8F388487B6E88317FABC943
:103500004A3500A4CAF3BA5E6C2289ACC9C6B10CB4
:10351000001EDAFCC108416DC1BB66B3A0A8292E0C
:1035200091FFDF52003869997C7AFFA544008DFF36
:10353000FF690057B1B11215C0ECA40000D9FFEF2C
:10354000194085BD954EA6E2A800008DFFF232001D
:1035500083CBA32E89FFE359003AFBFF96000B941F
:10356000BE7341B5C6A0031CEFFFE800009DE39DBC
:103570000042CBCE390063FFFF720071F0E04934A6
:10358000CEDA770000DBFFB10000BAE08B51D5FB4B
:103590009C0000AAFFFF110052DACC4749AFB96C7A
:1035A000006AFFFF6B004FE9DC440094DC990000E7
:1035B000D7FFE20100B3FFBF2A65BBBA4B004DFF46
:1035C000FF3E0057F4DE6560CAD36E002FFFFF9008
:1035D0000000C5F4871B7CC09C331ECFFFD70000C2
:1035E00097F9B9222C9CB9570060FFFF5B004DFF93
:1035F000FF610F80D4A60000B4FFB90000B9F7A89E
:103600004C8FC89C2700A3FFF30F0053F8EC542302
:103610008ECB8D1454FFFF76001ADFFF810047B276
:1036200098241DD6FFB40000CAFFBE142BABD06493
:10363000004DF3FF540047F9FF80367DBF931B37E1
:10364000D5FF890000B6FFAF1A3FBDCC591EA4FFBD
:10365000DD1C0078FFE13C026EA6782E76FFF75362
:103660000051FFFF730041C8C32A069CFFBA000047
:10367000A9FFE5302EA6CD711875ECD228004BF4C9
:10368000F3631574CDA33B57E1FF8D0000C6FFB077
:10369000000790B76B44ADFFB71400AEFFDE1A0011
:1036A00083D282194CCBE35D003AFFFF890353CBF1
:1036B000CA4E299AE29C0000A4FFC3211FA9E07F03
:1036C000358EF3DB2F005AFFFF490041BEB85D5D28
:1036D000BDE282093FE8FF8E001DAACA622478DAA3
:1036E000B21600A3FFF7270089EFAC2C41B0D056EB
:1036F0000035EEFF72064FD0D66C55A9DE9500005E
:10370000B1FFBE00007AE3AB4E6BC8CC530A7DFF1D
:10371000F23B0053D0B5463FA1C5680048FFFF8982
:103720000031C5EF7D2157B4AD240086FFDD3A0599
:103730007DF6CA575DB5C74F004FFAFF500024CF42
:10374000F07B418BD6A32A33C6FFA8000088E3A0F4
:10375000394B9CA950229AFFED340071F9D94318D6
:1037600078C97E032EC8FF950724C9FF9C3B6CB91E
:10377000A32C1293FEB90B0070FFD64F44A1D27D4B
:103780001B62E8FF67001DC2EE77245BA8964453D6
:10379000D2FF9B0718B3FFA01C3298B24D1470F1F2
:1037A000EB49005FFFFF682B6FB98D2844B9E46FC8
:1037B0000019C9FF973463BBBD54359CF6C315008F
:1037C0006AF3D047266DAF8E5281DEE161004AE98F
:1037D000F7640C49A59A3D3DADFAA10714C1FFBF9E
:1037E00032328EB76B3074C3B133006AFAE5633C92
:1037F0007DC09C455EC0E5700011BAFF951C2D93FD
:10380000C57D579FE0B52D0E95FEBD311669A57B90
:103810004477CECD53056AFEFF771B4AA9B0523FCD
:1038200088C08A121AAFFFB63D3F99CD844A81C63F
:10383000B0260069EEDC521357BEBB696CAFCE8177
:10384000173FC3F089162584AE775F98C3962C3452
:10385000B7FFC838146EC999435399AD571460E443
:10386000F87F2C56B8C878608DA76E1334B5EF99E1
:10387000242290E0A25C7CB7B8511F78DFCE4B05C4
:1038800047ACAF706F97A36F3C78E1EE7E1933A21F
:10389000C77642679E8D3C369CF4CB4D2A82D7AFCB
:1038A00062648D904C2373D5CA5B1353CBD77B6472
:1038B00090B78C3045A9E39B1B1078C7A4676E8C2A
:1038C000986B5EA6E4BB420F68CCB054457B9D6C00
:1038D000376ACFEB872549BBDE8C4E5E8582484D2B
:1038E00099C997322B93EBB5676793AA683972C66B
:1038F000C6510041B6D081546B9A9B6A78B5CC8191
:103900002034A5D0874351838E5E589FE0BB4A2A5E
:103910007FDDC8683F61907B4F6DA8B469275CCCA0
:10392000E28E5A6D9D915359A1C7831B1C87D8B451
:10393000614D7AAD926E8AB7AD542066C4BD6839C8
:103940005988856683C0C8752A58BCE195403F7C7C
:10395000976B5780AD95493B93E2C16C5179A0823A
:103960005B7BADA3491556C1D8864358A1B47E7080
:1039700097B186353E96C79845396E97877C9FB834
:10398000954C4792D6C15F29559D945D5E8FA9786D
:103990003E60BDDF994F5690A3786A8B9A6F2C3B9F
:1039A00098D6AF58427FBAA1707B9CA0613465B0B5
:1039B000BD722D468BA68D889C9B75506EB5D08DA3
:1039C00036337EA47B5D789D8F564A91D4C46E4277
:1039D0006A9F987576857D4D3872C0C67D3E59A91F
:1039E000BE8870879E8342468BC19C422C6CADA5DD
:1039F00085858F8B6B6193C1AA572A5BA0996A67F3
:103A00008795745072BCD394474C8FAF8C6A697B96
:103A1000714D599BC39F544689C4A977768B915F9A
:103A20003F6CAFB868284899BC9A797B8C886875D8
:103A3000A5B782363682AC8C6A7088856364A0D064
:103A4000B5623C6CACAC7A5A677B6A5779AAB57D93
:103A50004863A8C09573748677505C98BB8B3B2FE6
:103A600077C0B881697D98846E86A79E5E345C9D20
:103A7000A680666E807A6D8BB8BC82465191B997EC
:103A80005E506E7E69688BB09C5F5186BEB3806667
:103A900071806A5E82A79955305CAFCB9764668F60
:103AA0009B7C768E9F8148467DAC9B6B5A72888149
:103AB00084A2B5985C4877B3B1724859827E697622
:103AC0009DAA7C536AAAC49B645A778471738B97AE
:103AD00075424A8DC8B271597DA291737C949463EA
:103AE000405E9BB184555C85988C8DA1A07B535E14
:103AF00097BC955341688B7F768BA28F635E90C293
:103B0000B5754F61898B747788835D4970B2C490B5
:103B10005A6293A48977808E7A4F4F83B29C604A11
:103B200071A1A0898996906D5A7CAAA86E40518295
:103B300092827E8E9378637DAEBD91564F7C9A863D
:103B400070748275565D93C3AE6B537AA8A37F736E
:103B50007F84654E6EA1AB784A5B95B09780869264
:103B600083626793AF90503D6998967E7D8B897193
:103B70007095B8AB6C445F949E7E6A727A695C7C87
:103B8000AFBB88546096B395706B7C7A5C5F87A8F6
:103B9000935B4D7AB0AD8575838F79647CA0A26C00
:103BA0003C4F8BA78D747889847381A3AF89514D65
:103BB0007FA7946C6070796D7395B1A06B577DADE4
:103BC000AB7D626C7F726074979F764E609DBD9BEB
:103BD0007471888D72708C9F844D4072A9A57C6A27
:103BE000798D847E92A89D6A47649AA7805C5E76F0
:103BF0007D7686A3A9825A6699B697685C737E6DB6
:103C00006B859B8B5B5381B7B181687690836E7AAD
:103C1000929367415794B19169688592838598A280
:103C200084535081AA9A68506682828092A3966AD1
:103C30005C80B0B07E555B7A8072788D9172556CE5
:103C4000A3BD996A6382937F74828F7C50497AAC5A
:103C5000A8795E729392848998926B4D6799A88235
:103C60005251768F8888959A81626D99B298634F88
:103C70006A8681767F8C8265638AB3AD816170903C
:103C80008E79778586674B6397B1936561849E9241
:103C9000868C917F5A5984A4986448628D988B8B46
:103CA000918B726987AAA97B4D557B8E80777F8324
:103CB00073657BA5B597675F819A8D78787D72581B
:103CC0005A84A9A37359749FA68F8386866E5B72EC
:103CD000969F784B5281A29786858B84717999AA99
:103CE000925D49688E907B757C7D727392ADA67BE8
:103CF0005A6B929C84727273675C749AA88A61632F
:103D00008BAA9D847B7F7C6768859B8C5D4A6A9AC1
:103D1000A58E7F7F867E778AA09E744C5780998976
:103D2000726E767B79859DA990666184A19676688E
:103D30006C716B70889F98705E78A2AB9079777E7B
:103D4000776C788D92714F5C8AAA9B7E7580898191
:103D500084939B865A5071969778666D8085848F80
:103D60009D9978617498A18366636F76737C8D9654
:103D700080636B92AD9E7B6C76807976818C805C63
:103D80005476A2A8876D72888E8789928F6F52624F
:103D9000899E8A686075898B8C939886696988A3E7
:103DA0009A745C62757D808790896E6681A7AE8EFD
:103DB0006B6A7C847F7F84836A556793AC99746750
:103DC0007B90908A8A8B7C5E5B7A9A98765C66841C
:103DD00093908D908B76697B99A0845F596E8387D1
:103DE0008384877B6D7796AA9B7564728588807DB6
:103DF0007E77626482A1A38369718C978F868683A4
:103E00006F5D6E8D9B87645F7995988C86888271D3
:103E1000738B9D936E5763808E877E8182777588C2
:103E2000A0A28566677E8D877C78786D657793A381
:103E3000916F677F9798887D7D7666677F95927191
:103E40005B6B8D9D92827F827A737F92977D5B59A7
:103E5000758F8F807A7E7E798193A0927061738B4B
:103E60008F807371716D73889B997C6673919D8F40
:103E70007B7577706B788A917E6162829D9B867874
:103E80007C807A7A87928868566889968877757D6B
:103E90007F818C99977D626782938B756A6D737849
:103EA000849398876D6C849C99827172747174800C
:103EB0008D886E627596A1907A777F807C828D8DD9
:103EC000765B5E7C96937E72778085899195876B11
:103ED00062758F937E6A68717A828C938D786B7A23
:103EE000949F8D746B7076797F878979676D8BA1CC
:103EF0009A7F727884848184887D645C72919885CD
:103F00007071808B8C8B8D8A77676F8694876D63D9
:103F10006E7E86898B8C817273889C957A686A77AD
:103F20007E8080837F6F6C809AA08973728089867F
:103F300081817F70626B87998F766C7A8C918D8985
:103F400089806E6A7C91907863677B8B8E8A888487
:103F50007A7581959B866B64718084807E7D767195
:103F60007B929F93786E7A8A8D857F7D7668687C58
:103F700093957F6D73879592888481766C768A920B
:103F8000816761738B938B83817E7A7F8F9A8E7228
:103F9000616A7E89847A7878757A8A9998826F7353
:103FA00085908A7E77756D68748A9688716C7E9329
:103FB000988C817E7B7273828E886F5E6985959006
:103FC000837D7F7E7E8792927D66647689887C740D
:103FD00075777A8391988C776F7C8E9183777270E6
:103FE0006D7282908D796B748C9A92827B7B7875DE
:103FF0007C888B7963637B9294857A7B7F81858EC5
:1040000092866E626E848D827371777C838C938FBF
:104010007D6F758A958B786F7073767E888C8171D1
:104020007285989685797A7E7B7B8287816D6371B4
:104030008A968A7A77808587898D8B7966687E8F64
:1040400089776F747F85888C8D8576738191907E5A
:104050006E6C72787D83898779707A8F998D7B7584
:10406000797D7D7F858476666A82979480757A846F
:1040700088898A8A806E67768B8F8070707C878B48
:104080008A8B897E757B8B9387736B707A7F828531
:10409000867F74778797948173757D818180817A1B
:1040A0006C697A9197887574818B8B888681756924
:1040B0006E828F87736C76868D8A87878278778306
:1040C000918E7A69697681848283827A76809198EA
:1040D0008A77717A83847F7D7C746C7487958F7CFA
:1040E000737B898F8A82807B706D798A8C7C6C6F00
:1040F000808E8E8784837E797D8A8F826D657081C4
:10410000888480807E7A7D8A96907E70727E868397
:104110007C78757072809093847574828F8D847DA5
:1041200079736F76848C82706C7A8D928A817F7FAE
:104130007D7D858C8673666C7E8B867C7A7E7F80A7
:104140008690918373707C87867C757574757E8A82
:10415000918A7A747E8D92897D777674767F89864E
:10416000786D7488958F827D7F81808388887B6B52
:104170006777888B80797B8082848C908B7A757945
:104180008D85716B6E767D787885908E7D8294A218
:10419000917F756F6E757479867D6E6B7F94948454
:1041A00080858687887D817B696268869284787F36
:1041B0007D7E8786979B8A756B7986847C737D7CF0
:1041C0006F7483918D7D7A8291918075757B7775FF
:1041D0007C848478707A88938F83828488857E79C2
:1041E0007A786E6C7C8A867B7579848A8D8D8D85D4
:1041F000787178878B8071707881868989847C77E3
:104200007E8C9489766D70787F7E7C7D78737786DE
:1042100094938478798189898581796D6B78888C8C
:104220008175737D888B8B8A857B7477848D867688
:104230006C717E86888684827B7B86918F80706F8E
:104240007982847F7C7A73737E8C92877978818976
:104250008A847E7A756F74818B86797378858D8A6E
:104260008583807A767B85867A6C6C7A888A85826B
:10427000817E7D838D9086776F7580858079787853
:10428000797F89908C7F777B868B877F7A77737332
:104290007B868A807677828C8D88837F7A777A8214
:1042A0008780726B73828B88837F7D7D8089908B02
:1042B0007C6F6F7B85847C7777797D858E8E847823
:1042C00078828B8A82797574747A82888378757E15
:1042D0008B918C847F7D7B7C808582766C707F8BDC
:1042E0008A827D7D8082868C8C81736E7784877FC5
:1042F0007775797E838A8E897D777D888D877B74BB
:1043000074767A8288877D7579869190867E7C7DA9
:104310007E7F83847C716E79898F887F7C7F8387A1
:104320008B8D867970738089857A74777D83888C8C
:104330008A817879838C8A7F7371757A7F8485808E
:104340007775808D91897E7A7B7D8081827E746D88
:1043500074828C897F7A7B8186898B877B71717C63
:1043600087887C73737B83888989827978818B8C39
:10437000827570747B7F81817F78777C8A8E8C7F59
:104380007A7A808281807D776F737D8C8984767C58
:104390007C8A868D828272757686877F776A969709
:1043A00092344A8DD9AD7F424A88B7AD574853CD34
:1043B000BA8F361E7FE8B58C4A38769FC080475842
:1043C0008E99B4765741779FB283698F8B997574B4
:1043D00050749F8E93665C84978C695979AABA76DB
:1043E0003A5A80B4BC824D3B82B4AB7B484887C903
:1043F000C087453E84BA9F6E4259ACBD97532B622D
:10440000BDD090343490CFCA74252F8EDEBB5F1B95
:1044100050BCDFA93C227BCFCD802F3C8FC5AD5B4C
:10442000264DB2D19C4B2C78C7CD913B3788C2B773
:104430007032459ABD955C3E7DBEB67E3D469AC9BA
:10444000B272323B90BEA5693355A4C2A75C4084CA
:10445000B7B98746498BBAA563314F9DC0A058387C
:1044600074B1C199534983B1AC78404D96B7965A0F
:104470003E73B8BF88474592C6B577394390BAA115
:10448000643358A5BD9D5D4381B5B1854F5594B149
:1044900099663E5A9FB39159407DB6B48E514F9064
:1044A000AFA076445496B0915A3E74B7BC8B4B493A
:1044B00091BFB67F3F498CB5A56735539DBC9F5CC6
:1044C000447EB4B7874B5492B6A0633C5AA0B994CB
:1044D000563E7AB7B98E505092B4A474425498B3F1
:1044E00092583B6FB5BA8B4D488FBEB580444E8D08
:1044F000AE9F6C3F5A9BB095604980B0AF875057D4
:1045000093B4A0673C559BB8975A3A70B1BA93548C
:104510004D8BB1A97A465292B2965C3968AFBF9181
:104520004B4489BEBB82444D8CB4A56B3D589BB5B2
:1045300095584983B4B17E4B5996B8A2643C599DB5
:10454000B995574072AEB68B53548DB1A6724A5A84
:1045500093B292583F6AAFC08E4C4687BCB9804731
:104560005089B2A268425B9AB592564881B7B8802A
:10457000455291BCAC65355199C2A055366BB0C35C
:10458000934A4C8CB6B1723F5592BA9E553866AD7F
:10459000C695463E84BBC285404B84B3AA69405948
:1045A00097B896584C7FB1B5824D5B8EB1A66B43E0
:1045B0005692B79C5D406BAABB92545186AEAC75C7
:1045C00048578CB49C5B3E63A8C2964E427FB5C0F0
:1045D00089464B80AEAA6D445894B998554981B626
:1045E000BC81425592B9AC66365192BDA3583A6A25
:1045F000ACC4944B4F89B4B4723F568CB49E563BB6
:1046000066A6C2984F4882B1BD894A5280A7A66C5F
:10461000465B90B295574E82B1B7854A598DB0AB83
:104620006D3F528AB5A2624062A1C09D584E7FADD7
:10463000B87F465084B2A35F3D5FA2C29B52447EC6
:10464000B2C08E4A4D7EA9AA6F42558FB79B57477D
:104650007DB2BE8844548FB4B16E3B5089B2A4621F
:1046600042679EBB9A5A5784A7B17D4A5985AA9F33
:104670006041649FBA98574E82ACB88D53577FA360
:10468000A36F4A5A8DB1985B4A79B0BE8C4B528960
:10469000B2B376404B82B1A76842609BBC9D5B532E
:1046A00083ABB47F485586ADA0603D60A0BE9A55EF
:1046B0004881AFB98D515680A3A572495A8BAE99E6
:1046C0005D4C7DACB78C50598BAAAA76465385AA0F
:1046D0009D684B699BB196625D86A6AB7F515A84FB
:1046E000A89C66435E9CB99A5D4C7BAAB8915855CC
:1046F0007CA2A4744B598CAE985F4B79ADBA9152A1
:104700005386AEB17B444E82ABA26A48669AB39898
:10471000605B88A8AC7F4F5B88A79C66426098B3BB
:104720009C61507CA6B3935D597E9DA1774F5D8BB4
:10473000A895624F79A7B3925C5883A6AA804F517F
:104740007DA4A0704D6495AD97665C82A4A9825447
:104750005884A69C69455C95B49C634E77A5B59337
:104760005D567DA2A3764D5A8BAA97614D78A8B667
:1047700091595783A7AB7E4E537EA39F6E4E67958C
:10478000AC95635D84A5A97E535B86A69C69475F53
:1047900092B09A645277A2B39360597AA0A2754FEF
:1047A0005A89AC98614C73A5B7925A567FA7AD80D1
:1047B00051527CA49F6F4F6696AF96645C83A9ADFF
:1047C00080515885AAA069445B92B29C645176A23C
:1047D000B392615A7B9FA176525D88A7956250760D
:1047E000A3B3915F5C82A5A97F55587FA39B6F52AD
:1047F0006995AB92635E83A7AC82565A83A7A06E7D
:10480000495B8EAF9C6954739FB091635B7B9FA1A2
:1048100077525B87A795634F72A2B2925E587FA5CD
:10482000A88055577FA29A6D506894AA91625D83C3
:10483000A6AB82545A83A6A06F4A5D8CAB9C6A5586
:10484000749CAD94655F7D9B9F78546086A295664D
:1048500052749DAE94645C80A1A88558597E9E9A3E
:1048600070526992A895675F81A4AC87595B81A358
:10487000A1744C5B87A69C6E587499AC94675F7E5C
:104880009C9F7A546088A2936652739DAD95665D35
:1048900080A0A786595A7E9C9B71526990A6946706
:1048A0005D80A3AB885A5B80A09E754E5C86A39BFF
:1048B0006F5A7496A99569627E9A9E7A5560869F12
:1048C000946851709AAD97675C7C9EA8885C5A7B0F
:1048D000999A7353678EA595685D7FA1AC8B5B59E0
:1048E0007E9FA178505A82A19C735B7292A6956BB1
:1048F000637E979C7B565F839C9369526F96A895C5
:10490000695D7C9BA5885E5C7B98987455678CA3D9
:10491000966B5E7C9DA98C5F5B7B9B9F7A545C80D1
:104920009D99735D7291A3936C647C969B7B585F99
:10493000839E956C536E95AA986B5D7A9AA68A6051
:104940005D7B96987557688BA0956C5E7C9CA98F53
:10495000625C7B999F7E575D7F999876607591A088
:10496000916E6781989A7C5A62859D946E556C927F
:10497000A7996F5F7998A48C655F7A94957759674A
:10498000899D936E607B9BA790665E7B999E7E5A05
:104990005F7F999775617592A2936E67819B9D7CED
:1049A000585E849E966E536A90A7996F5F7896A41E
:1049B0008E655F7993957458688A9D926B5F7C9C35
:1049C000A78E635E7C999F7C595E80989972607314
:1049D00094A39369647F9DA17D585C849E9D6C55D2
:1049E0006292A4A26A636F9CA295616193A88E1FD4
:1049F000388DE3AF912B3D7FCDB36F4367C9A0885E
:104A0000314298C982974C3C7EA3B58B456D9A9DE7
:104A1000CA7A473C6396CD8171746A8F95815382BF
:104A200094A3A763577D919E63416C97BE8A464CC1
:104A300062B0DEAC5936639FCF99422B5CC8E285E9
:104A4000291E7BE6CD792D3FA6E7C0531037B7F17D
:104A5000992A1665DEEE7F2A2489F7CD661B33B1CD
:104A6000F9AD300A51D3E984292280E7CF6F30377E
:104A7000A0DDAB562951B5D3853C3777CFC56F390B
:104A800046A1D7AA5C325DB2C88136327AD0CB73E8
:104A9000303E9DD9B0643A59ACCF974A3A6CB8C50C
:104AA0007636418ED4BA633553A5CF9E4F3A66AF62
:104AB000C178434C82C3B167415AA8CD9B553E692A
:104AC000B5C27E423D77C1B771454F9ACAA06243D5
:104AD00066B0C08B534672B1AF75494D8DBFA7709C
:104AE0004A60A0B594624B71A9AE7B4C4E88B9A2C6
:104AF0006C4861A8BB955F4471AEB5864E447AB6EA
:104B0000AF79475399BDA267436CAAB58D534C7BCF
:104B1000ADAD7B495292B8A26E496EA7AD905D4F84
:104B20007CA4A47C50568CB09E6E476AA8B3955E58
:104B30004979A6A885534E7FAAA67A4C5D98AF9F67
:104B40006A4A71A1AA8D574C7AA6A77E4C5590B09F
:104B5000A57448699EAD985F4973A0A88450508899
:104B6000AFA7764666A1B39E604472A2AE8E52464F
:104B70007AA9AE82495C96B0A86E496E9AAE9958F1
:104B80004573A3AC854A528FAEA7754A6D9AA89912
:104B9000624C739BA6864F4E88AFAA7A47639DB13D
:104BA000A366446C9DAD92554375A3AD874D589057
:104BB000ADA9744C6A95A6975F48709BA98A4F521D
:104BC00089ACAC7A4D6A97AA9D654B6F96A68C54BA
:104BD0005181A5AB7F4F6592ADA86F4B6891AA98A4
:104BE0005C4B7298AC8D565D86A5AB7B536A8EA4E8
:104BF0009A654E6F94A58D595984A2AA8357688DE2
:104C0000A4A06E516B90A5905A507AA0AC875360C7
:104C10008BAAAD774D6189AAA064496893AE935C75
:104C20005B7FA0AF84586585A2A16C4F678DA7926A
:104C30005D567C9EAD885A6486A2A575536486A293
:104C40009863517296AB905D5F819EAB8358617E95
:104C50009DA273526486A599685D7997AA8C606558
:104C6000819AA076556587A29869577396AD956429
:104C70005E7A9CAB84585C7CA0A17052658DAD9C23
:104C80006759779BB08C5B59789CA57B545E80A458
:104C9000A1725B7092AC97665E7897A581575D7E36
:104CA0009F9F73576C8EA89C6F5E7393A88E625BF8
:104CB0007496A17D586082A3A2765C6E91AB9968D0
:104CC000576D93A5895D57759AA17D5D6989A59CEE
:104CD000725E6F8FA18A6056749AA17D586087A713
:104CE000A1775B6A8EA79769546A91A2875C5A7E06
:104CF000A1A37D5C698DA59B71596B8DA08D6457B7
:104D000073959E83626687A09C785E6C8E9F8E668C
:104D1000557196A1855C5B81A3A47F5D658AA39B89
:104D20007255658CA18F6254759CA7885E6087A6BA
:104D3000A37855638CA29367516E96A28A636084B0
:104D4000A1A17F5C668CA1946B526C96A28B61587A
:104D50007FA2A6865F6288A39E7855638A9F91682A
:104D6000557499A38B646285A0A07F5B62899E9431
:104D70006D536B93A08C665E819FA1825D6289A159
:104D80009870506592A4916453779EAA8C605E845B
:104D9000A3A27C566089A0956B53729AA68D62601F
:104DA00087A4A27F5A648BA0966E536C94A28E65E2
:104DB0005D81A0A4855D6389A19A7352658FA394D8
:104DC0006754769DAA8F635E82A1A27F586187A0F7
:104DD000976D546F96A68F655E82A1A3835C6187F1
:104DE000A09871536891A391665B7EA2A6865D5FD1
:104DF00089A49C724F6290A4936652749CA990639C
:104E00005E82A0A2805760889E946B537198A48C98
:104E1000626086A3A27F5A638AA0966E526991A2AD
:104E20008E645A7EA1A7865D6087A49E7352638EAE
:104E3000A5946655759CA98D626284A1A27C596473
:104E400088A09569546F97A78D605F83A3A6805A49
:104E50006286A1996E52678EA490645A7C9FA88640
:104E60005D6185A39F7452638BA39567557198A864
:104E70008E64617F9DA17D5B63859D936B576F956C
:104E8000A58C636083A3A47F5B6386A1986E536740
:104E90008FA48F645B7B9FA9865E6184A4A17554F7
:104EA0006088A59769567095A88E6564809DA17DE0
:104EB0005E67869E9269587195A389606182A1A4FC
:104EC0007E5D6585A19A6F56678DA490655D799C1E
:104ED000A8876164809F9F76586284A1946A596F05
:104EE00093A68C6665809EA07B5E66849E926A58BF
:104EF0006D92A48A63617EA0A6805F64809F9A7190
:104F0000586488A391685D7599A78762637F9F9EA7
:104F1000775A63849E916B5C6E90A28A69677E9AD1
:104F20009C7A6167849C8F69596D91A28964627CC7
:104F30009EA48161637F9F99725963869F8E695F8A
:104F40007496A3866667809C9A775F66839A8D6A5B
:104F50005F71919F86686A819D9B786068869F904B
:104F600069596C91A38A66637B9CA48365667F9C68
:104F700097745D67879D8C6A627897A084686B835D
:104F80009D98766169869B8C6C6174929D84696B37
:104F9000819B997A646A859B8D6C5D6E8F9E876814
:104FA000657C9CA1826768819B93736069889B8AFA
:104FB0006B6579979E836A6C849C9676626A869A02
:104FC0008A6C6274929C846B6C839C9878636B8708
:104FD0009B8B6B5D6E8F9D8669657C9A9D81696AEE
:104FE000839A9173626C8999866B667A969A816CC2
:104FF0006E849A9378676C8697886E6575909883AF
:105000006E6E829A967C696D86998B7062708D98AF
:10501000866E6A7D979A836E6D83978F77677089A6
:1050200094856F6A7C9395816F71869790796A7089
:105030008793867068789094826F708598927B6B66
:10504000728894877167748C9384716E8094948253
:10505000727384918A786C74868D81726F7F8F8F62
:1050600080747686928B7A6F75878E83736D7A8C57
:105070008F82747484938F7F7173869189776C7536
:10508000878D857774808D8F847979858C867A7306
:105090007A87887F7575828C8A81797A878E897CF8
:1050A000747986898277727C8788817979828A8807
:1050B00080797A8387837B75798285827C7A808503
:1050C00086837E7D8284827E797B81827E7A797FEF
:1050D0008585817D7C838785807A7A8183807C78D1
:1050E0007C8284827E7C818585827D7C8082827FB9
:1050F0007A7B7E8082807E808282838281817F7EB5
:105100007F7F7F7F7D7D7D7E8081818281808182A6
:1051100083837F7C7B7D80817E7B7A7D8385827E9D
:105120007D808585807C7C7F83817C797A82868284
:105130007E7B7F8586827E7B7E83827E7A797E827D
:10514000807D7A7D8486827D7B8087867F78777F6D
:1051500086837C76788288867E797D8689847B7852
:105160007D85857D75768188867D767B878D877A3E
:10517000757C87888074737E87857C7579868B853E
:105180007A767F8B8B8074727F89877B7174838C36
:10519000887B747C8A8E8578737D89897D71738123
:1051A0008C897B7179888F887A727B888B80727109
:1051B0007E8A897B7076868F8878717C8B8F8371ED
:1051C0006E7E8C8C7D6E71838F8C7B707A8A9086DC
:1051D000746F7C8B8C7D6D70818E8B796D778992ED
:1051E00089766F7C8C8F806E6E7F8C8A796D7689E4
:1051F000938A766E7B8E92846F6C7C8D8E7C6C70C5
:1052000083918C796E798C9387726E7C8D907E6B96
:105210006E81908D796C7689938A756E7B8C908087
:105220006D6E7F8E8C786A7589948B756D7C8F9589
:10523000846D6B7D8F907C696F83928E786D798C95
:105240009588716C7D8E907D696E83928E776A777A
:105250008C978B736C7C9094816B6C80918E77684B
:10526000748A978C736A7B9097846C6A7E91917A2A
:10527000686F85948D756B798E97866E6C7E919133
:1052800079676E84948E7468768D9889706B7D9240
:10529000947E696D82938D7367748C988A706A7C32
:1052A0009397816A6B80938F76667088978B716A0B
:1052B0007B9399846C6B81969278656E86978C71DE
:1052C0006777909A876D6B7E95957C676D84968DD8
:1052D0007266758E9A896E6B7D95987F696C8296E1
:1052E0009074657189988A706B7D9498816B6E83D8
:1052F000979075657089988A6E6778929B856C6CBB
:105300008096957A676E85968B6F66778F9A866D95
:105310006B7F96987E686D84968D7266738B978688
:105320006D6C7F96977E696E85988F7365728A978C
:10533000886D687A9299826C6E829793786770888C
:1053400097886D67789199836B6D8297967B6A7069
:1053500086988C7066758D98846C6C8097967B6946
:105360007086998F7165718A98866B687B94998134
:105370006C708598907467738B98876E697A919634
:105380007F6B6F8498927768718795876E68788F46
:1053900096816D6F83989579697188988A6F667424
:1053A0008C97846B6A7C93957E6D7386968C7369FB
:1053B000758B948169687C93947C6A7085988F75ED
:1053C00069728996856C677890957E6A6F839792EB
:1053D000786A748996886E68778F957F6B6E8296EF
:1053E00092796B74889589726B778C927F6D6E80E1
:1053F00093927A6B7287988D756C768B94826D6DB3
:105400007D91907A6C7286968C746B748995846E9B
:105410006B798F937E6E7184958E776D778A958583
:105420006E6A788E917B696D81948F786C758A979E
:1054300089736C788C927E6C6C7D918F796D758898
:10544000958A756E788C92826F6D7C8E8D796E7375
:1054500085938A756F7A8D9584706E7D908F7A6C46
:105460007083938D786F788A958874707C8E917E26
:105470006E7181918C786F7789948975707B8D912D
:105480007F6F707F8E8A776E7688928775727D8F38
:105490009180717281908B776C7385918674707A2C
:1054A0008D928273727F8E8D7B6F738390887670FE
:1054B000798B928474727F8E8E7D7173828E8776E3
:1054C0007079888F827373808F8E7C7073828F87E0
:1054D000756D7688918573717D8E8F807274828EE2
:1054E00088776E75858D8274717C8C8E80747582E0
:1054F0008E897A7175848C8274717B8A8C7E7375C7
:10550000838F8A7A7176858D84746F78898D8174A2
:1055100074808D8C7E7478848C85777279878B7F8C
:105520007475818C8B7D757A868E8678727A878A7F
:105530007E72727E8B897B7277868F88787178878E
:105540008B8072707A88897D7477838D887B767C76
:10555000878B8175747E89887B7378848C877B7652
:105560007E8A8E8376747D89897C7375828B877B36
:10557000757B888E8578747D89897E74757F898531
:1055800079747A868B847977808A8A7E7577828A25
:105590008679727A878C837776808B8B7F7577821A
:1055A0008B877A7379858B847977808A8C817779F8
:1055B000818A867B747983888177767F8A8A7F77F0
:1055C0007A848C887B7479868B8276737C898B80D5
:1055D0007779848D897D777B868C8377747C888AC4
:1055E0007F7578838C897D767A868B8377747D87C7
:1055F000887D7578838B877C767C878C8478757DB5
:1056000088897D7375818B887C767B878C8578759E
:105610007D888A7F7576818A877B747A878D857A83
:10562000767D898B8076777F888679747A868C847C
:1056300078767F8A8C807475808A877A7278848B7A
:105640008478767E898C817576808A887A72768372
:105650008B8578747C888B827878818B887B747852
:10566000838A8376747C888C817677808A8A7D743D
:1056700078828B8577737A868B827676808C8C7F26
:105680007478838B86787279858A8175757F898A2B
:105690007E767A858C8678737B878A8073737F8B1E
:1056A0008B7E7377838D887A7278858B8275727C16
:1056B000898A7E7477838D897B747B878C837573ED
:1056C0007D88897C7275838C887A747B888D8475DB
:1056D000727C898F887A73777D8275737A828E8CDB
:1056E000837B7D828A8074787F8B907E78808688A9
:1056F0007C6E697482897B787E89958F7C6E7282DC
:105700008F8A7E7582868A7F6E7380959B845F54B4
:10571000618496A79C7D6D6D655B6A86B6C1AE900F
:10572000644F52557098A8A59B7D614E527292B4F9
:10573000BA9E73594E4A5A88C0D7C5894E2F3F56D4
:1057400074A9C6D2B57738243E65A1D2CFAD814BBE
:1057500034364A80C2E8D6A36520174376AAD0DB48
:10576000BB83431B2B5797D0E4D59E55241B2F6436
:10577000B2EBECB87A3B1E2C4E86BDE8E8B86A2244
:1057800011285AA0D8E6C88A4B28264781C3EFE8DB
:10579000B1621C09275FA6D9ECCF8C47212A4F8024
:1057A000B9DAD9B16D341A295CA1DCF1CB87432376
:1057B0002B3F74B4DDE7C27A2F0D235698D0EAD37D
:1057C0008C4C322E487EB8E1E3BB6F2C101E4A8F02
:1057D000D4F2DD9A4B232A4A76A9D2DDC177381C50
:1057E000204B92D4F1D4924D3038436AA4D1DAC21E
:1057F000883B0F1D4B87C4E7DA995537334A78AB9E
:10580000D7DBBE833F17153A81CFF5DE9C542D358B
:10581000547298C1D6CC8F4419144086CDEED39AD9
:105820005F3D4149659ACED7C2964B14153E79BA71
:10583000E4DEA6653D384E76A3CCD3BD95501D0E53
:105840002A6FC2F9E6A4603138577292B7D2CE9F60
:10585000531D0D2D74C3EDD7A26D463F4B6191C909
:10586000D8BE9C5B1E122D66AAE1E7B86F3E305091
:10587000779FC5D1BBA366270A1456AFF9F0B1656F
:10588000382F5F7193A9D0CBB46023032460B1ECAF
:10589000DAB569813B570076FDFFCE694E531F0A8A
:1058A000416CFFD7DE3C3D4C4A918DB4DCE27E1C5E
:1058B0002F494D462EFFFFFF5C000057B97697BA7F
:1058C000FFD02E006B654507B4FFF35800439A9351
:1058D0003B60FFFFA7000074A969008BFFFF7F00FA
:1058E000218EC95944E9FFD013007E90550047FF2F
:1058F000FF730023B9A1612FC5FFFE43004C9689B9
:10590000123FFFFFB60008739782439CFFFF4C00D5
:1059100037977F3A2BF9FFD8000087BF8E2F8FFF74
:10592000FF76001A888C3D0DDDFFEC0D006E999D11
:105930005668F8FFBE00007DA76F1EA8FFF53C006B
:105940004DADA9614EF6FFAF0000829E7A298AFF15
:10595000FF440038B6BD7755D6FFE21E0041969C45
:105960004068FFFF6E0013AAB88D48AFFFF0280013
:1059700040BC9E445DFFFF860000A2C2934394FF9B
:10598000EE50001691B38253CFFFA5000089E1B419
:105990005A7BFFFF7800008AB77D48C7FFAA000046
:1059A0007ACCB06B76F5FF8D000080C8A25794FFCB
:1059B000D82D0044D8E47E49C6FFB1000053BEB7DD
:1059C0006F83FFD9310036E0D98656BCFFC514007D
:1059D00036CAC9776ADBE0570009ACEBBA5D8EFFC7
:1059E000DA2B0015C0DDA261BAEF7E0000A7F4BF7C
:1059F0005D77F0DB550001A9D3AA60A4E48500001F
:105A00008CF8E2745FD9F279000096F7C55E7FD416
:105A1000A1190059E5E98F57C6E67600008BE8D357
:105A20007472D1AE29003DD9F79D499CE2A30200D2
:105A30005FF2F37F53B0BE4B001BC4FFBF5287E140
:105A4000AD1B004BE4F390539BBC690000A4FFDD49
:105A50006A6CC1A9360025D5FFB0437DC887040014
:105A600080FFF17253A7C05B0009C2FFCD5666AC40
:105A70008F26005AEEFF9E518FB069000099FFE615
:105A8000684D9CAB3D0040EBFFB2456BAC8513000D
:105A900079FFFF7E428FA35B0120BBFFCF5D5B9947
:105AA00088240069F7FFA53B679E73120DA5FFECE4
:105AB0006246959343003EDFFFB4425C9C7B170E29
:105AC00097FFFF83376E8F600828C6FFDE4D408743
:105AD00084471165F7FF953666965C092ABAFFED93
