:10000000604F0020E50F0000DF0F0000E10F00004F
:1000100000000000000000000000000000000000E0
:10002000000000000000000000000000E5100000DB
:1000300000000000000000004111000085110000D8
:10004000DD0F0000DD0F0000DD0F0000DD0F000000
:10005000DD0F0000DD0F0000750A0000DD0F00005D
:10006000DD0F0000DD0F0000DD0F0000DD0C0000E3
:10007000DD0F0000DD0F0000DD0F0000DD0F0000D0
:10008000DD0F0000DD0F0000DD0F0000DD0F0000C0
:10009000DD0F00000000000000000000DD0F000088
:1000A000DD0F0000DD0F0000DD0F0000DD0F0000A0
:1000B00010B5064C2378002B07D1054B002B02D03E
:1000C000044800E000BF0123237010BD400400205D
:1000D00000000000601D0200084B10B5002B03D08B
:1000E0000749084800E000BF07480368002B00D11B
:1000F00010BD064B002BFBD09847F9E7000000002D
:1001000044040020601D0200601D02000000000089
:100110000122014B1A7070475C040020084B13B594
:100120009847084A031E02D00123537013BD0432BE
:100130000548009209210122044C0068A047F5E718
:10014000710C00005C0400204C2E0020BD18000043
:1001500010B500210348044B984700210348044B85
:10016000984710BD11010000810C00001D01000026
:10017000D10C000002003038C0B2092806D91300A3
:10018000613B0020052B01D8573AD0B270470000E0
:10019000F7B5234B042123489847234C234D2100D6
:1001A0000A22234B280098470A2200212000214BD5
:1001B000984720000A21204B98476C78322C0BD0AE
:1001C000332C0FD00020312C05D1E8791B4B9847F8
:1001D0001B4BD8702000FEBDE879184B9847184B90
:1001E0001871F7E7A878154EB0470190E878B04746
:1001F000019B134F1B01C01838702879B04701903C
:100200006879B047019B1B01C0187870A879B04786
:100210000190E879B047019B1B01C018B870D9E77D
:10022000C10B000054260000352E00203F2E002078
:10023000E92100006D2200008D0C00007501000016
:10024000302E002073B5FA250126AD0076420A2132
:100250001C4B1D4898472B0001AA310000201B4C65
:10026000A0470128F3D10923019A1A42EFD0184B75
:100270009847322819D033281CD03128E7D1154BA4
:10028000D8780328E3D8144C01F078FE02060B0D51
:10029000124B9847A047DAE7114B9847114B984704
:1002A000F8E7114BF5E7114BF7E70A4B1879104BBC
:1002B0009847CCE7074B9A78597818780D4B9847B0
:1002C000C5E7C0468D0C0000352E0020391800000F
:1002D00091010000302E0020FD1E0000851D000051
:1002E0001D1D0000091F00009D1D0000651D000070
:1002F000611B00003D1E000013B5074B040098472A
:100300008022064B00940193520000230449054CBF
:100310000548A04713BDC046510100004C2E0020E7
:1003200059260000ED1300004502000001211C4B7E
:1003300010B51A6A1B4C12090A401B4B62701B68ED
:100340005B0A0B4023700023A370184B98470300EF
:10035000022814D003281DD00128F6D1A078012846
:10036000F2D1134BDA78002A03D19621114B98472A
:10037000EBE79B78002BE8D10F4B9847E5E7A27895
:10038000022AE1D10A4BD8780028EED09B78012BC5
:10039000DBD1F1E7064BDB78002BD6D0ECE7C0468B
:1003A00000440041382F0020A0440041A51E000059
:1003B000342F0020E11C0000851D0000802213B5B1
:1003C000044B00900193520000230349034C04485E
:1003D000A04713BD502E002059260000ED13000049
:1003E0002D03000013B50100012807D1044B0200C2
:1003F0000448009300680023034CA04713BDC04687
:1004000064040020542E0020BD18000010B50C4BD1
:100410000C489847C4B20C4B200098470B4A1379FC
:10042000A34205D00023147153710624200010BD8F
:1004300053790133DBB2022BF8D85371F5E7C0468C
:10044000F5190000582E0020611E000064040020F1
:1004500070B5294C062819D1A3795A1CA271322BE8
:1004600002D90023E371A371E379032B0DD1234B50
:100470009847002809D1224B224A1988A07191423D
:1004800003D918800830204B984770BD0023A37112
:10049000E379834225D01D4A1D4BE07101381A8053
:1004A0000428E1D8184D01F069FD03080C14180068
:1004B000184B98470520A847D6E7174B98470620C2
:1004C000F9E7164B98470820A84700220C4B1A80E2
:1004D000CAE7104B98470920EDE7114B98470720D2
:1004E000E9E7042BC0D10A4D2B88002BCDD10A4B54
:1004F0009847064B2B80B7E764040020DD1D000001
:100500000C2E0020E7030000611B00008813000090
:1005100004000020851D00001D1D0000651D000059
:100520009D1D0000F0B500240126270085B0802223
:100530003C4B9203052C0AD8601E042807D8802162
:10054000394D090201F01AFD41474D5257009A6199
:1005500040229A618022002412029A61631CDBB25D
:100560000093324B9847324A324908323000324BBE
:1005700098478023314A3249324D3000A847FA2348
:1005800001219B0003AA49422F4D0020A8472F4D6F
:100590000190A8472E4B30009847019B012B34D186
:1005A000039B019A13420ED02A4B402123489847BF
:1005B0001C22002321485100415A0132CB189BB222
:1005C000242AF7D1DF08009CB1E7EF809A6140222E
:1005D0009A615961C2E76F805A6140229A619961BC
:1005E000BCE72F809A6140225A61F8E7AF805A61D8
:1005F00040225A61EDE72F819A6140229A61996108
:10060000154B9847154B9847A8E70921144B1548F7
:10061000984730000E4B9847A847044B98470094E2
:10062000D1E7C04600440041582E00209D0700003D
:1006300064040020E5030000650A0000622E00202B
:100640001A4000420D09000039180000B5070000EB
:10065000B9090000BD1900000D040000510400009C
:10066000C10B000062260000802213B5044B0090ED
:100670000193920000230349034C0448A04713BD93
:10068000542E00206C260000ED130000250500000C
:1006900010B5164B01209847154A1378002B03D04C
:1006A0001378013BDBB21370124A1378002B03D08E
:1006B0001378013BDBB213700F4A1388002B03D071
:1006C0001388013B9BB213800C4A1388002B03D084
:1006D0001388013B9BB21380094A1388002BD8D0A2
:1006E0001388013B9BB21380D3E7C04681170000FB
:1006F00006000020102E00200E2E002004000020F6
:100700000C2E00200023802213B59200009001934C
:100710000249034C0348A04713BDC0466C260000A5
:10072000ED130000910600000122174B1A705A7E4B
:1007300052B2002AFBDB154A1168154A48011268BB
:10074000D20E02430720084040010243E020490145
:10075000C000D2B201400A431A850322DA70023A7D
:100760005A700C4A1A615A7E52B2002AFBDB0A4ABE
:100770009A805A7E52B2002AFBDB0F221A765A7EEA
:1007800052B2002AFBDB7047004000422460800028
:100790002060800002180000240400000222044BA4
:1007A00019780A431A705A7E52B2002AFBDB70474E
:1007B000004000420221044B1A788A431A705A7E84
:1007C00052B2002AFBDB7047004000420022802129
:1007D0001D4B9A619A8C8A439A841022D9681142DF
:1007E000FCD01A4A1168890E3F2900D12039184AD5
:1007F000890212689205920D0A439A621022D96802
:100800001142FCD002229A840E32D9681142FCD0E7
:10081000104A11495160517849B20029FBDB0F4958
:1008200051800F4951800F4951800F4951800F4924
:1008300051800F4951800F4951800F490F4A116271
:1008400000221A627047C046000800402460800001
:1008500028608000000C00400007010014400000E8
:10086000164000001A4000001B4000001C40000021
:100870001E40000021400000141D0500000400403F
:100880004122054B5A7000229A7002321A70DA79AE
:10089000002AFCD17047C04600480042134B00219B
:1008A0001800134A20305960996019735961996191
:1008B000197750631800403090630E485061100063
:1008C0003F3001700C4951640C49198401211970A1
:1008D00001700B4850640B481974188613000231DC
:1008E0004D331970084B13807047C04670040020C8
:1008F0000048004181818181001B800009040000C3
:100900000027800009090000020F0000F0B5254F04
:1009100085B001923C780501E4B20294224C387013
:1009200065192D7B0397214E214F002D05D03D7871
:10093000AC466246002592072BD0032501223D706C
:10094000050167193A733A8C520500D5C9187962C6
:100950006519298C0A0523D5019AD218AA620201C9
:10096000A418228C01259205920FD3409BB2638478
:100970000223104A11780B431370726C736C9B0442
:100980009B0E06D1130704D42B0083403269134316
:1009900033616A462800039B127A1A7005B0F0BDD5
:1009A000019ADBE73F480041700400200048004105
:1009B0004E48004140480041022130B5084B094AE9
:1009C0001C7818701578E4B28D4315700D001178FD
:1009D0002940FCD1044A0001101801731C7030BD7D
:1009E0003F4800414048004170040020F7B5174AD5
:1009F000174B16780500107000011818007B019243
:100A0000F6B2144F144A002803D014780020A4072B
:100A100019D00320012410702A0198182033047380
:100A2000981810220D4B984702230D4A2000117888
:100A30000B4313707B6C9B049B0E04D12300AB40D3
:100A40003A6913433B61019B1E70FEBD3F48004164
:100A500070040020004800414E480041E921000098
:100A60004048004103010248C0184160826070475D
:100A700070040020F7B50027144B0197198C0F2341
:100A8000134C1940134A2578217013780220DBB2E9
:100A90000193019BEDB29C460B0161460E4E014253
:100AA00003D0F11810700F7301380121019F0F421C
:100AB00004D0117000210220F2181173F3185A6843
:100AC000002A01D0996890472570F7BD0048004181
:100AD0003F4800414E48004170040020704700002C
:100AE000BFF35F8F62B6C1200B4B80001A580B49D1
:100AF0001140C02212040A431A504022C0211A6039
:100B000004301A5809061202120A0A431A508022A7
:100B100012011A607047C04600E100E0FFFF00FFCD
:100B20008222014B5A60704700400041164B174A21
:100B3000190010B502201A601A61012242311C000E
:100B40000A708870002146342170A270E270227110
:100B500062716172A272E27222736273A273E173B4
:100B60001900332431310A70CC70113C0C712234DD
:100B7000CC7110340C724F3C4C72B43397310A7004
:100B800048701A7010BDC0460044004140802000EB
:100B9000094B0A4A1A60D22252429A81C02292021A
:100BA0005A60DA69002AFCD1196802320A431A60D5
:100BB000DA69002AFCD17047000800420401314084
:100BC00030B5031E05D0012407250B4A002902D1A8
:100BD0000123180030BD0139137E2342FCD0536835
:100BE0002B40012B03D0037801301385EEE70388F7
:100BF00002301385EAE7C046000800420722074B8F
:100C0000598B114206D0802119765A83033A197EF6
:100C1000114200D17047198DF9E7C046001000421B
:100C2000104A114B1360D2235B429381C0239B0275
:100C30005360D369002BFCD1116802330B4313605E
:100C4000D369002BFCD1094A11002C311362936146
:100C50000B70D36193605362137513605360D3605C
:100C6000D38570470010004204011240D0040020D8
:100C70000022024BD88DDA8580B27047D004002064
:100C8000014BD86019617047D0040020F7B5060009
:100C90000191041E13D00B4D00242F002C373B78FC
:100CA000A3420CD1084B9847019B8421EB6101239F
:100CB0002C623B70EC851C00044AAE6191752000EB
:100CC000FEBDC046D0040020FD0B00000010004215
:100CD000014B586299627047D0040020F8B54A4C25
:100CE000A37D002B2BD0237EA27DDBB252B2002A43
:100CF00015DA5BB2002B12DA0722638B13400ED099
:100D0000424DEB85424B9847842323752B000022EC
:100D10002C331A706B6A934201D0A86A984701205D
:100D2000237EA27DDBB2024201D0034225D1042200
:100D3000237EA17DDBB2114201D013423DD1F8BD2B
:100D400062683A40012A0BD09A68511C9960B25CE3
:100D500022859A68217EAA4292410140524219E0BE
:100D60009A68511C52009960925BF1E71A6A551C0F
:100D70001D629D695200515335E0244B1A7D002AB3
:100D8000D5D09A685D680727AA429241217E1E68E5
:100D900052420140002901D0002AD1D19A685968F5
:100DA0008A42C4D300221A755A6001322275DA6869
:100DB000002ABCD018699047B9E7144B1A002C32AE
:100DC0001278002ABBD01A6AD8698242B7D20725A6
:100DD000218D626889B22A40012AC7D01A6A551C3F
:100DE0001D629D69A9541A6A9042A8D11900002277
:100DF0002C310A70DA61843222755A6A002A9ED038
:100E0000986A90479BE7C04600100042D00400203B
:100E1000FD0B000001220A4B1A80DA7B52B2002A35
:100E2000FBDB084A00211A80FF221A7519765A76D0
:100E3000C43A9A73DA7B52B2002AFBDB7047C04691
:100E4000002C0042440500000222044B19880A438A
:100E50001A80DA7B52B2002AFBDB7047002C00427A
:100E6000034B1876DA7B52B2002AFBDB7047C04690
:100E7000002C004201220A4B1A80DA7B52B2002A6F
:100E8000FBDBAC22D2001A805D221A83223A9A73CD
:100E9000C5325A81DA7B52B2002AFBDB7047C0466A
:100EA000003000420222044B19880A431A80DA7B80
:100EB00052B2002AFBDB7047003000420121094B8F
:100EC00019609A680A40FCD1C0218900196002218A
:100ED000D9635A649A64FF22D2001A649A68002A7D
:100EE000FCD17047002800420222044B19681143CC
:100EF000196099681142FCD17047C0460028004231
:100F000001210D4B19609A680A40FCD1C02189006B
:100F100019605A6158690949014359610849D963FF
:100F20005A649A64DA641A65FF22D2001A649A68D5
:100F3000002AFCD17047C04600200042000F40400C
:100F4000020000040222044B1968114319609968D9
:100F50001142FCD17047C046002000420622104BCF
:100F600010B55A600F4B98470F4B98470F4B984757
:100F70000F4B98470F4B98470F4B98470F4B98478D
:100F80000F4B98470F4B98470F4B98470F4B98477D
:100F90000F4B98470F4B98470F4B984710BDC046D3
:100FA000004000412D0B0000CD070000210B000088
:100FB000210C0000DD0A0000910B00009D080000DC
:100FC00029070000150E000081080000750E0000C2
:100FD000BD0E0000010F0000E10A0000FEE7FEE781
:100FE000FEE700001648174970B5884204D0002378
:100FF000154CCA18A2421CD30021144B144A934228
:101000001BD3FF21134B144A8B4393600222134BD3
:101010005A62134B0832DA70124B20329A738023D3
:10102000114A51680B435360104B9847104B984737
:10103000FEE7C55804331560DBE702C3DFE7C046AF
:10104000601D020000000020340400204004002045
:10105000602F00200000000000ED00E0FC70004167
:10106000005000410048004100400041692100005B
:10107000151F000072B6FEE772B6FEE7002382B0CD
:10108000019372B6019B002BFCD002B070470000A8
:101090000B4A13681868203080F30988022080F317
:1010A0001488BFF36F8F3FBCAE4608BC04BC62B669
:1010B0001847C046C046C046C046C046C046C046A7
:1010C000142D002010B58024031F64041C60043B11
:1010D00019600349043B1960143B40381A6010BD85
:1010E0007D100000704700008022044B52051A60FA
:1010F000BFF34F8FBFF36F8F7047C04604ED00E022
:1011000072B6044A136801331360BFF34F8FBFF305
:101110006F8F704700000020034A1368013B136083
:10112000002B00D162B6704700000020EFF3108062
:1011300072B6704780F3108870470000000000000E
:10114000EFF309800E4B1A6820381060F0C0444657
:101150004D4656465F46F0C008B572B600F02AFB11
:1011600062B60CBC116808681030F0C8A046A946E9
:10117000B246BB4680F309882038F0C81847C046FD
:10118000142D002010B5074B9847074B04009847D3
:10119000002803D08022054B52051A602000044B22
:1011A000984710BD2D110000E915000004ED00E086
:1011B000351100000022054B05491A600A600549F7
:1011C000054A116007221A607047C04610E000E02F
:1011D00018E000E07FBB000014E000E0FF220C4BB1
:1011E0001204196810B50A431A60FF220024196816
:1011F00012060A431A60074B9847074B1C60074BBF
:101200009847074B9847074B9847200010BDC046AA
:1012100020ED00E0B511000000000020911000005A
:10122000B51700007D100000072370B504001842B8
:1012300001D09C4308340F4B98470F4B1A68002A83
:1012400004D11A0007210C328A431A600B490C485A
:101250004A680025A418844204D8A24202D21D681C
:101260004C60AD18074B9847002D01D1064B9847AD
:10127000280070BDD915000000050020002D0020B9
:10128000F7270000BD16000079100000704703002A
:10129000012208334360C36003610023524282602D
:1012A0000360704700230361704743689A684B608E
:1012B0008A609A685160996003680861013303602D
:1012C000704703000A6830B50833541C0BD103691A
:1012D0005A684A6091608B60596003680861013305
:1012E000036030BD23005C682568AA42FAD2EFE7AC
:1012F0004168826803698A608268516059688842DF
:1013000000D15A60002202611A68013A1A60186816
:1013100070470000064B1A681268002A02D1013A91
:101320005A6070471A68D268D2685268F8E7C046B7
:10133000082D0020F8B50500124C134BA668E06894
:101340000F00043098476B1C08D1002F06D02000F6
:10135000E1680E4B043110309847F8BDE368751909
:101360005D600B4BAE4203D9606AE1680431F3E77C
:101370002068E1680431984763689D42EDD265605A
:10138000EBE7C046082D0020F1120000AB12000070
:10139000C312000070B50F4C236C002B05D1636C99
:1013A000012BF8D90C4B9847F5E70C4B9847636B2A
:1013B000DD680B4B281D9847E36B013BE363236C0F
:1013C000013B2364074B9847286B074CA047280034
:1013D000A047E0E7082D0020E910000001110000FF
:1013E000F1120000191100008D120000F0B59700F5
:1013F00085B00190574C38000D000293A047061E9F
:1014000019D05420A047041E12D006633A00524B54
:10141000A52130009847236B3A1F9A1807239A4357
:10142000002300929D4209D1230034331D7013E044
:1014300030004A4B9847012676427DE01A00E95C6D
:101440003432A154EA5C002A02D00133102BF5D1CA
:101450002300002243331A700A9D042D00D904256D
:101460000027231D1800E56265643D4EA7640393C1
:10147000B04720001830B04705235D1B23005033D0
:101480002461A5616462E764029A1F700199354B7B
:10149000009898470B9B2060BB4200D01C60324BE9
:1014A0009847324DEB6B0133EB63EB68002B46D171
:1014B000EC60EB6B012B21D128002D4E4430B0475E
:1014C00028005830B04728006C30B04728008030E2
:1014D000B04728009430B047264F2748B0472748E8
:1014E000B04738005030B04728002830B0472800B7
:1014F0001030B047204B2B60204B6B621D4EE26AD0
:10150000B36E0133B366F36E9A4200D9F2661423C8
:10151000280053434430C018211D194B9847194BDC
:101520009847736E0126002B06D0EB68DA6AE36AEF
:101530009A4201D2144B9847300005B0F0BD0D4BD4
:101540005B6E002BDAD1EB68E26ADB6A9342D5D896
:10155000EC60D3E7291200006D2200008D1200001C
:10156000A5120000C510000001110000082D002088
:101570008F120000882D0020B02D0020C42D0020E7
:10158000AB12000019110000E910000073B50C4DFA
:1015900000242B007033019300942300802209491A
:1015A00009480A4EB047012808D172B60122084BFB
:1015B00052425A6068669C60064B984773BDC046AD
:1015C000882D00207426000095130000ED13000004
:1015D000082D0020DD110000024A536F01335367CC
:1015E0007047C046882D0020F7B52E4C636F002B46
:1015F00052D12D4DAB6801330093AB60002B08D165
:101600002B686A6A2A606B62A36F0133A367274B5A
:1016100098476B68009A00279A4206D3224E336897
:101620001B68002B11D1013B73601F4BDA68D16A34
:1016300014224A439B185B6C012B00D90127E36FEE
:10164000002B00D001273800FEBD3368009ADB680C
:10165000DD686B689A42E7D32B1D01931800144B89
:101660009847AB6A002B03D02800114B18309847DD
:10167000EB6AE26E934200D9E366142230005343D2
:101680004430C018291D0B4B9847F368EA6ADB6A9F
:101690009A42C3D30127C1E7074A002713680133E1
:1016A0001360D0E7882D0020082D002015130000BE
:1016B000F1120000AB120000082E0020F7B5264BF7
:1016C0009847264C636F013B6367656F002D04D01C
:1016D0000024234B98472000FEBD224EF36B002BC5
:1016E000F6D0236D002B18D1002D01D01E4B98474A
:1016F0001E4E3568002D09D001271D4B9847002844
:1017000000D0E767013D002DF7D13560E36F002B76
:10171000DED0184B98470124DBE7E36D164FDD68F8
:1017200028001830B8472B1D18000193B847EB6A02
:10173000E26E934200D9E3661422300053434430F2
:10174000C018291D0D4B9847F368EA6ADB6A9A4274
:10175000C7D30123E367C4E701110000882D0020EF
:1017600019110000082D002015130000082E00207C
:10177000E9150000E9100000F1120000AB120000B2
:1017800010B5041E02D1074B984710BD064B984771
:10179000064B002120009847054B98470028F4D1BC
:1017A000F1E7C046E9100000D9150000351300002C
:1017B000BD16000070B51C4D6B6F002B02D00123CD
:1017C000EB6770BD194CEB67E36819491B6B1A682E
:1017D0008A4208D15968914205D19A688A4202D159
:1017E000DB68934204D0E068E168124B34319847DB
:1017F0001426EA6E33005343E118486C002810D0D9
:101800000B00886C4C3340688864984201D143686F
:101810008B6414235343E3189B6CDB68E360EA6634
:10182000CFE7013AE6E7C046882D0020082D0020CA
:10183000A5A5A5A575100000F7B51B4E1F000090CB
:1018400001911500B047194CE36850331B78022B07
:101850000FD0E2680099D36C8B430121D364E36815
:1018600050331970002F04D0114B38009847114B9A
:101870009847114FB847B047002D02D0E368DB6CA2
:101880002B60E368002550331B78022B05D1E268FA
:101890000199D36C01358B43D3640022E368503344
:1018A0001A70B8472800FEBD01110000082D002065
:1018B00035130000E910000019110000F7B51D00F4
:1018C000284B04000F00160098470190002D01D00E
:1018D000E36C2B602200022150321378701EDBB2C1
:1018E000117003280AD800F049FB0206040DE26CCF
:1018F0001743E76402E0E26C0132E264012B09D095
:10190000012502E00025022BF3D10198164B9847E0
:101910002800FEBD154D164F6B6F002B1CD1261DE8
:10192000144B30009847E26AEB6E9A4200D9EA669F
:1019300014233800310053434430C0180E4B9847ED
:10194000FB68E26ADB6A9A42DAD9089A0123002A24
:1019500000D01360EB67D3E7280021005030183126
:10196000ECE7C0462D11000035110000882D002045
:10197000082D0020F1120000AB120000B0B56B463C
:101980004C1C0831C908C9005B1A00AF9D460A22E9
:101990006946064B984706496846064B984721001A
:1019A0006846054B9847BD46B0BDC046E1210000E2
:1019B0009426000001230000C10B0000012301391F
:1019C0000A009C46F0B58B1A994211DD00250300F0
:1019D0002C0008E01E885F88BE4202D965461F8041
:1019E0005E80013402339442F4DB013A002DEAD1E7
:1019F000F0BD0000F0B50288C388040085B0002067
:101A0000934201D8D01A80B200216288019193429A
:101A100002D8D21A92B201920022A5880292AB4259
:101A200002D8ED1AAAB2029222890026934201D866
:101A3000D61AB6B264253A4F310026816843B847BA
:101A400083B203936B4601989B89310023806843DE
:101A5000B8476080029831006843B847314FA08092
:101A600003210398B847304E304D02213000A8477B
:101A700060880321B84702213000A847A0880321CD
:101A8000B84702213000A84720890321B847022126
:101A90003000A847E0880321B84702213000A8475A
:101AA00019212348A84725890620C72D35D96288E2
:101AB0002388A1889A4203D24C0005389C422CDB33
:101AC0004C009C4208DA03204843904204DAC826BE
:101AD00005207600B54220D803205843824206DD17
:101AE000944204DA9026FF360220B54215D95800F8
:101AF0008446814204DD8F0056000320B7420CDC8F
:101B000006209C4209DD614507DA9B009A4204DA0F
:101B100096239B009D4200D9023805B0F0BDC04617
:101B2000911F00007D19000079260000C10B000004
:101B30007C2600000020704700487047A8F4010090
:101B400000207047002070476020704700207047D9
:101B500060207047882040007047002070470000D8
:101B600010B5114B040000209847092C16D80F4BD4
:101B70000F49A0000B800F4B0F4CC2580F4BA242D5
:101B80000DD9012252424A8022001B589B184B60FB
:101B90000B4BC96000208B600A4B984710BD94B274
:101BA0004C801B58F2E7C046B90900000924000028
:101BB000202E00200C2F0020FFFF0000E42E00202C
:101BC0000C480042ED09000070B501251B4B1C4A72
:101BD0001C4C1A601C4A25605A601C4A9A601C4AB8
:101BE000DA601C4A1A611C4A5A611C4A9A611C4AF2
:101BF000DA611C4A1A621C4A5A621C4B98471C4BF9
:101C0000606098471B4BA06098471B4BE06098476B
:101C10001A4B206198471A4B60619847194BA06195
:101C20009847194BE0619847184B20629847184B2A
:101C3000606298472800174B984770BDE42E00203B
:101C4000962600000C2F0020972600009726000003
:101C50009F1B02009F1B02003F1B02003F1B020054
:101C60003F1B0200FF1B02000F1D0200391B00007A
:101C7000351B00004D1B0000511B0000491B0000DC
:101C8000411B0000451B0000551B00005B1B0000B2
:101C9000A50E0000611B000030B5084C0300226B4C
:101CA0001030C240012500202A4205D12800090237
:101CB0001C33090A9B00195130BDC0460020004268
:101CC00010B5054B9847054C00210320A047002183
:101CD0000220A04710BDC046450F0000991C00001F
:101CE0000C4B70B504000D009870D970012807D115
:101CF00000210320084CA04729000220A04770BD06
:101D00000028FCD1044D0320A84721000220A84749
:101D1000F5E7C046342F0020991C000010B50D4B8C
:101D20009878012812D1DB78962B0DD0C82B03D0E0
:101D3000002B04D1962100E0FF21074B9847074B69
:101D40009847074B984710BDC821F6E79621012018
:101D5000F3E7C046342F0020E11C0000091F0000FB
:101D6000FD1E000010B596210020034B9847034B41
:101D70009847034B984710BDE11C0000091F000065
:101D8000FD1E000010B500210120024B9847024BB8
:101D9000984710BDE11C0000FD1E000010B50B4B64
:101DA000DA78C82A0ED0FF2A04D0962A07D1084B29
:101DB000984704E00220C8211856064B9847064B66
:101DC000984710BD022096211856F6E7342F0020C0
:101DD000851D0000E11C0000FD1E0000014B9878ED
:101DE0007047C046342F002030B5074D03002A6BE2
:101DF0001030C24001240020224203D120001C33B5
:101E00009B00595130BDC0460028004210B5074B19
:101E1000002098470021064C0800A047002101201F
:101E2000A047044B9847044B984710BD610E000033
:101E3000E91D0000E90E0000490E000070B50D001C
:101E40000400054B10009847E9000020034DA84707
:101E5000E1000120A84770BD610E0000E91D0000EF
:101E6000013810B50E4B042817D800F087F8030787
:101E70000C10130000221100FF2002E00022FF21BD
:101E80001000984710BDFF2200210800F9E7FF224B
:101E90001100FAE70022C821EEE70022F8E7C04669
:101EA0003D1E0000104B30B5186801230F49400A51
:101EB00018400F4A0870126A4D7812091A400D4CEA
:101EC000AA420AD0C8225B1B4B700B4B22701B78B6
:101ED0000130002B00D0002030BD2378DBB2002B76
:101EE000F9D18B700320F7E7A0440041382F002080
:101EF0000044004106000020102E0020C822014BA3
:101F00001A707047102E0020C822014B1A707047BB
:101F10000600002010B500200D4B984719210D4BED
:101F20000D4898470D4B98470D4B98470D4B9847D8
:101F300003200D4B984702200C4B984702200C4B76
:101F400098470C4B042098470B4B9847FEE7C04638
:101F50005D0F0000C10B00007C2600000D1E00007C
:101F6000C11C0000C91B0000F90200006906000046
:101F7000BD030000050700008D15000002B4714686
:101F800049084900095C49008E4402BC7047C046BC
:101F900003460B437FD4002243088B4274D30309CA
:101FA0008B425FD3030A8B4244D3030B8B4228D36B
:101FB000030C8B420DD3FF22090212BA030C8B4291
:101FC00002D31212090265D0030B8B4219D300E031
:101FD000090AC30B8B4201D3CB03C01A5241830BB6
:101FE0008B4201D38B03C01A5241430B8B4201D366
:101FF0004B03C01A5241030B8B4201D30B03C01A8F
:102000005241C30A8B4201D3CB02C01A5241830A08
:102010008B4201D38B02C01A5241430A8B4201D337
:102020004B02C01A5241030A8B4201D30B02C01A61
:102030005241CDD2C3098B4201D3CB01C01A5241C8
:1020400083098B4201D38B01C01A524143098B4251
:1020500001D34B01C01A524103098B4201D30B013A
:10206000C01A5241C3088B4201D3CB00C01A52415F
:1020700083088B4201D38B00C01A524143088B4224
:1020800001D34B00C01A5241411A00D201465241BD
:10209000104670475DE0CA0F00D04942031000D3DC
:1020A0004042534000229C4603098B422DD3030A31
:1020B0008B4212D3FC22890112BA030A8B420CD341
:1020C000890192118B4208D3890192118B4204D36A
:1020D00089013AD0921100E08909C3098B4201D3EA
:1020E000CB01C01A524183098B4201D38B01C01A24
:1020F000524143098B4201D34B01C01A524103099B
:102100008B4201D30B01C01A5241C3088B4201D349
:10211000CB00C01A524183088B4201D38B00C01AF6
:102120005241D9D243088B4201D34B00C01A5241CD
:10213000411A00D20146634652415B10104601D35A
:102140004042002B00D54942704763465B1000D3E4
:10215000404201B5002000F005F802BD0029F8D08A
:1021600016E770477047C04670B50D4E0D4D002400
:10217000AD1BAD1005D0A300F35801349847A5421C
:10218000F9D11FF0DBFD084E084D0024AD1BAD104A
:1021900005D0A300F35801349847A542F9D170BD8A
:1021A000481D0200481D0200481D0200501D02008B
:1021B000931E10B50C00222B0ED80A2A05D0002140
:1021C000611800F0CBF8200010BD0028F7DA2D23AD
:1021D00040420B700121F3E7002300200B70F3E76E
:1021E00010B5FFF7E5FF10BDF0B505000F2A2FD998
:1021F0000B0003439B0734D116000C000300103E74
:10220000350901352D01451927681F6067685F6032
:10221000A7689F60E7681034DF6010339D42F3D1F8
:102220000F239E431036851989191340032B1AD9A1
:102230001E1F0023B4080134A400CF58EF5004330C
:10224000A342FAD10324A643331D2240C918ED1836
:10225000002A05D00023CC5CEC5401339342FAD120
:10226000F0BD0500F6E71A00F2E7C046F0B58307B7
:1022700043D0541E002A3FD0CEB20200032502E014
:102280001A00013C38D3531C16702B42F8D1032C92
:102290002AD9FF220A40150215432A0415430F2CA0
:1022A00014D927001A00103F3E09013636019E1945
:1022B000156055609560D56010329642F8D10F22B6
:1022C00097431037DB191440032C0DD91A00271F30
:1022D000BE080136B6009E1920C2B242FCD10322CC
:1022E00097430437DB191440002C05D0C9B21C19E0
:1022F000197001339C42FBD1F0BD14000300C6E706
:1023000070B50500830716D102680E4B0E4CD3182A
:10231000934323420FD1043002680A4BD3189343EE
:10232000234208D104300268064BD318934323425A
:10233000F1D000E001300378002BFBD100F006F86B
:10234000280070BDFFFEFEFE80808080031C0A789E
:1023500001311A700133002AF9D17047F0B54646B1
:10236000D6464F46C0B58AB090466A461D4B0D0012
:10237000060013CB13C213CB13C213CB13C21B78AB
:10238000EA4613704346023B2F000024222B01D95A
:1023900024E04C46631C30004146994600F056F953
:1023A00053465B5C30003B70414600F0C9F8013792
:1023B000061EEED14B46E8540023002C07D0EA5C01
:1023C000295DE9542A550133013CA342F7DB28007B
:1023D0000AB01CBC90469946A246F0BD2C70002065
:1023E000F6E7C046141D0200034B10B5002B02D0C7
:1023F000024800F005F810BD0000000011240000A4
:1024000010B5010000230022002000F01FF810BDCD
:1024100070B5094B094CE41AA41009D0084AA51854
:10242000AD00ED182B68013C9847043D002CF9D114
:102430001FF08EFC70BDC0465C1D0200601D0200D6
:10244000FFFFFF3F7047C0467047C046F0B54E469D
:102450004546DE465746E0B5364D83B0060028684F
:1024600098460F009146FFF7EDFF334B1C68A423FD
:102470005B00E058002852D043681F2B13DC5A1C25
:102480000192002E28D1019A02339B0042601F5016
:102490002868FFF7D9FF002003B03CBC904699465E
:1024A000A246AB46F0BD254B002B3DD0C8204000D6
:1024B00000E000BF002837D0A42200235200A1581A
:1024C00043600160A0504032835004328350013396
:1024D00001930023002ED6D09A00924682444A46A9
:1024E000882154466250C4225200914681444A4693
:1024F0008739994012688B460A4394464A4661469A
:102500001160842241465200A150022EBBD102002C
:102510005C468D32FF3211680C431460B3E7200033
:102520004D30FF30E050A7E72868FFF78DFF01200E
:102530004042B1E730040020101D020000000000FE
:10254000002243088B4274D303098B425FD3030AF2
:102550008B4244D3030B8B4228D3030C8B420DD305
:10256000FF22090212BA030C8B4202D31212090293
:1025700065D0030B8B4219D300E0090AC30B8B42D1
:1025800001D3CB03C01A5241830B8B4201D38B037F
:10259000C01A5241430B8B4201D34B03C01A524124
:1025A000030B8B4201D30B03C01A5241C30A8B4267
:1025B00001D3CB02C01A5241830A8B4201D38B0252
:1025C000C01A5241430A8B4201D34B02C01A5241F6
:1025D000030A8B4201D30B02C01A5241CDD2C30968
:1025E0008B4201D3CB01C01A524183098B4201D3E4
:1025F0008B01C01A524143098B4201D34B01C01ACF
:10260000524103098B4201D30B01C01A5241C30846
:102610008B4201D3CB00C01A524183088B4201D3B5
:102620008B00C01A524143088B4201D34B00C01AA1
:102630005241411A00D20146524110467047FFE70D
:1026400001B50020FFF78EFD02BDC0460029F7D07E
:1026500076E77047626C650A00626C655F7461734F
:102660006B004144436E4661696C0A0070645F749C
:1026700061736B0049444C45003A3A002E2E2E2ED1
:10268000746F792D747261696E20762D322E31202F
:102690002E202E2E0A000052494646A0F401005773
:1026A000415645666D742010000000010001004095
:1026B0001F0000401F000001000800646174617C7D
:1026C000F401007D817E817C83828A8181757A78A4
:1026D000818082807C989C8B30437DD5B580433A45
:1026E00077C4BD6F4C4FACBF9B453477D2A79145A3
:1026F0002B5FA5C791544B86AFC983391F7DAEC8E8
:102700008A57618CAF88763C689DA5A4684C84ABE1
:102710009A624364B0CA8143356AC6D39E51216F21
:10272000B7B3884C418AC4AF843B3794CAAA662C9D
:1027300069C6C5A148156BC8CD8E282B9BD3C07028
:102740001C3CAFDEB0541663C9DCA22B1881CAC78B
:1027500084273799C8B669265BB5BF954D3C89BCBF
:10276000B08036429BC2AB6A305CB0B8975A3D81AC
:10277000BAB07D39409AC3AE77334DA1B9A268395A
:1027800069ABB89B503D84B3AF84424D99B8AA6EF3
:102790003463ABB598543F83AFAA86494E97B8A42B
:1027A0006D355FAAB49C5A3979B5B6873F3D90BE66
:1027B000B37A3653A5BDA060366FB2B7954D3C8253
:1027C000B0A97E44549CB1A06E3D6BACAC8F554417
:1027D00088AFA07C45529EB49A6B3C66A9AA945CD3
:1027E0003E7CB2AD8747428BB2AB803C529DB49FDA
:1027F00063376AA9B297533F83B1AB81435299B112
:10280000A06A3A68ACB091533F83B4AA80434E9B10
:10281000BBA26A365EA8B296573A7AB4B0864743EE
:102820008BB5AC7E40569DB19C663F6EA8AE93576B
:102830004583ADA3804C5997A9996D4369A8AB8F87
:102840005C4580ACA5844B4E96B7A3713B5BA2B0B0
:102850009A5F3A71ADB28F4C3F84B4B1833F4E96CC
:10286000B4A4693963A3B399563E7FB1AB8149558E
:1028700098AF9B693E68ABB28F594581B1A67F473F
:102880004C94B9A4703D5AA1B39B623E71AFB28E15
:10289000514282AFA982485394AE9D6F4569A1A968
:1028A000945C457FACA4824E5695AD9C6F4265A862
:1028B000B1935A417AACA8844A4A8FB7A8763F5759
:1028C0009CB4A0663E6CABB290534382B1AC8148DD
:1028D0005295B19A6A466CA6AC8E5B4881AFA37CD8
:1028E000515A98B0976C4768A9B08F604A7DAEA7DF
:1028F00083524E8FB6A377485A9AAF9B6A456CA80D
:10290000AE8F5D4C82ACA783515792AC9B714D6DDD
:10291000A3AA8F5E4B80AFA681525692AF9C6E44A5
:1029200062A6B494624777ACAA85514D8DB6A5775F
:10293000495A98AE9969476DA8AE8C5B4B81ACA49F
:102940007E515995AD976E4E6DA3A8895F4F80ADAE
:10295000A17F57598FAB98704C65A2AF91654A73B0
:10296000A6A787564E87B2A67B4D5995AE9C6D4A59
:102970006BA3AD8E5C4C7EAAA47F525791AD9B7029
:102980004E6BA1AC8D5E4D7EAEA57E535891AE9B35
:102990006D4863A2B392614975A9A986554F88B263
:1029A000A5794C5A96AD9869496DA3AA8C5D4F8163
:1029B000ABA37F525A94AC986F4E6CA0A88C5D4B21
:1029C0007EADA68253558EAD9D704660A0B49964CD
:1029D0004571A5AB8B534C86B2AA7D495895B09EE4
:1029E0006A466DA4AE8F594D80ABA7804F5A94AD07
:1029F0009C6E4B6CA0AA8D5A4C80ADA88150558F0F
:102A0000AC9E6E46659FB198634874A3AA8B544FE1
:102A100085ACA77C4C5B91AB9D6D4B6D9FAA8F5A8B
:102A20004F80A7A57E515D93AC9D6C4A6B9EAD9087
:102A3000594A7BABAE864F5289AEA771445F99B4B9
:102A40009F63466E9FAF8E524E82A9AA7B4A5D8FCE
:102A5000ACA16A4B6D9CAA9057507FA4A77E505E94
:102A60008FA79E6E4D6D99A9915C507DA4AA865248
:102A70005687A6A271496496AE9D664B709CAB8E3C
:102A8000575281A6A97E4E5D8DA9A06D4D6E9BAB60
:102A9000925A517CA3AA81505B8CA8A16F4A689777
:102AA000AB945C4F7BA3AB88525586A7A4734A6551
:102AB00096AD9C644B729DAB8C575484A6A57A4D01
:102AC000608EA89D6C4E709BA8905C527EA3A781DF
:102AD000535C8BA69F724E6996AA96635279A1A900
:102AE00088565684A6A4764E6491AA9D6A4F6F9A22
:102AF000AA8F5B5480A4A67D505E8CA99E6E506DFB
:102B000099A8905E547EA3A681555D8BA69D714FBA
:102B10006996A992615179A1A887585885A6A1758F
:102B20004F6493AA9969506F9BA98D5D5780A2A4A9
:102B30007E55608BA79C70546D95A59061557BA0C8
:102B4000A583595E88A49E74506592A795645175BB
:102B50009DA88B5B5581A4A37A526290A79A6C5171
:102B60006F99A78E615780A3A27F555F8DA699703C
:102B7000556E97A38E62567CA1A1825B608AA29B50
:102B800076546793A4916655769CA3885D5881A37B
:102B9000A17B56628EA7996E536D97A68F63577B64
:102BA0009EA282595F89A69D75566A92A39264542B
:102BB000779DA3845C5E87A39D76546693A79466F5
:102BC00054749CA6895C577FA2A27C56628CA69BFB
:102BD0006E546D96A69065597B9DA2825A6088A31B
:102BE0009C75596C92A2916757779DA2845D5F8412
:102BF000A19E7956648EA5966B557198A68C6057E8
:102C00007BA0A581595F88A39A70536891A39167AF
:102C1000587798A0825B5F86A29B775A6B90A291AF
:102C20006858779AA2855F5F839F9C7857658FA5C8
:102C3000976D587297A58C62597B9EA3825B6186C3
:102C4000A19A74586A8FA2926B5C78989E825F6199
:102C5000859E98755A6B8F9F8E6859779AA1845E6E
:102C60005E82A19E7957658EA6986B566F95A58C4E
:102C700061587A9EA4805B6387A19A71586B90A477
:102C800091695C799AA1825E6286A09A74596B9070
:102C9000A3906656769CA3835E5D83A1A07856635D
:102CA0008DA6976C576F94A68C6256789CA6805E12
:102CB0006086A19E72586691A7946A597897A781F9
:102CC000665896B5A9451F65D1D595552168B1CDF2
:102CD000774C49ACC693582E5EC8C290592C6C9B59
:102CE000C193574F7D9FC594543A6895A2966C6DD9
:102CF00089A9726B5C68B09B8977527FAD9A694AEB
:102D00005EA1C08D53395BADC7A0764765A8A78E7D
:102D1000654174BFB08D572D75B5AB844646A1C1D2
:102D2000A879344AA4BDA258237AC5B88B43388CFD
:102D3000C6AD743349B0CCAB622063BBB994462AAC
:102D400085BEAE8240429CC0A16D3664B4B3975A32
:102D5000377AADAA8B4D438DB2A07D4A65A5A38974
:102D60005C4080B5A889504389AF9E7F4E5EA2AF7C
:102D7000996A4073ACA992594180ADA58549488FA5
:102D8000B2A7784160A1AA96674A7AA8A489564E4C
:102D90008FAE9C7A4A60A0AB91604378B1A9885607
:102DA000488AB19D784859A2B2966B456FA9A68B07
:102DB0005B4784AE9D80525698AB97754B69A6A72A
:102DC0008F61497FAE9E7E535295AD94754B64A53D
:102DD000AA91654575B0A98B574686AFA27E46512C
:102DE0009CB39C6D4168A8AE945B417EB1A8814BB9
:102DF0004E97B59E714161A6AE935F427AB0A782AD
:102E00004C4791B6A173415DA4AF92613F73B0ACE2
:102E10008A534687ADA27C46559CB39D6A3E67A8FF
:102E2000B0945A407CADA9864B4C91B4A4733E5AE1
:102E3000A0B29A623F74AEAF8B4D458AB6AA7B4171
:102E4000579EB69E643A69AFB8914F3D81B6B18046
:102E5000414D98BCA969365EA7BD9C553979B5B777
:102E600086434890BBAE733C5A9FB9A15E3C6FADA0
:102E7000B98E4B4485B5B07A405699B7A2633D6B85
:102E8000A9B99553437DB0B381454F92B7AA6E3D22
:102E90005E9FBCA25C3F72AABA8E494686B6B378E2
:102EA0003F5797B8A562406EA6B8924F477EAFB520
:102EB00080445391B7A8653F67A1BB9B564476AA4F
:102EC000B7874A5188B3AF73445D94B5A163497025
:102ED0009EB08E53507FAAAE7D4B5A8CAEA36948EC
:102EE0006A9AAF945A4E78A3B087515684A9A874B1
:102EF0004B6291B1A0654D6E9BAF8F59567EA5ADCB
:102F00007D4F5C89AFA46C4D6897B1955A4E77A4FC
:102F1000B185535883A9A8754F6390AF9D665170D2
:102F200099AD8F5E597D9FA67D556289A8A16F538B
:102F30006B94AB936056799EA883565C81A4A57868
:102F4000556389A79C6A526A95AE946156759CA98F
:102F500084595D80A3A27556658CAA9969567097AD
:102F6000A7895D5B7C9FA47C576085A69D6F566B8F
:102F700093AA916156769EAA855B5E80A1A1775740
:102F80006488A89C6D586C91A68E635B779AA48325
:102F90005F6381A09F785D6A8BA4946B5D7596A436
:102FA00088615F7D9DA07C5B6587A39A6E576A935D
:102FB000AB946758749BA7865D5C7FA3A37B5A6222
:102FC00087A4996E586E95A68D645C7A9BA0805DEF
:102FD00062859F97725A6B91A38F6759759AA284E5
:102FE0005F5E81A29D7759658DA6986E576C94A4FB
:102FF0008C63597A9FA4835D5E82A19C7557678F0D
:10300000A6946956739AA6885E5B81A29E775766DE
:103010008FA6956A557099A78A5E577CA3A37A52AA
:103020005D8BAB9E6F506795AA92605174A1AC877F
:10303000585781A4A27754648FA8986A537098A6B1
:103040008B605A7DA0A17B55628DA89A6B526E99B8
:10305000AA90605478A0A981535885AAA676516198
:103060008EAA9A67506F9BAE8E5C557A9FA57C5452
:103070005F8AA79B6B516E98A78C5F597FA1A37D38
:1030800055608DA99C6D4F6B99AB92605178A2AA47
:1030900085545785AAA879505F8DAA9D694E6E9B6D
:1030A000AD915D537BA0A57F55618DA79D6E526E3E
:1030B00099A98F60567CA0A37F555D8AA9A1724F04
:1030C0006594AD99654D6F9FAE8956527FAAAA7CD3
:1030D000515E8CAA9D6A506D99AC905F557CA0A4FE
:1030E0007F57638EA79A6B526F9BA98C5E567CA10B
:1030F000A480565B88A79F73526792AA9968517003
:103100009CAB8C5A547FA8A97E535E8CA99C6B51B2
:103110006F9AAA905E567DA2A57F55608DA89D6E80
:10312000506B98AB92605279A1A983525785A9A39D
:10313000714C6292AE9B644C6F9EAE8C57557FA6CD
:10314000A97C515E8AA89E6B506E98AA905E567CB0
:103150009FA48057618BA59B6E516C96A991615479
:103160007AA0A784555A86A8A4764F6291AC9C6831
:103170004E6D9BAC8E5A537CA4A880555F8BA89E45
:103180006E536E98A88F60567CA0A37E57618DA762
:103190009A6C516C99AA905F5378A1A98355588471
:1031A000A9A5754F6291AC9B68506F9AAB8D5C5628
:1031B0007DA2A77F566089A49A6E557095A48E61F2
:1031C0005A7D9DA1805B638AA39B72556D97A892DF
:1031D0006558799FA685585983A6A37854638FA90B
:1031E0009B6D546E97A68D625A7E9F9F7D5B658C0A
:1031F000A2956F5A7398A289625C809F9D7C5B64E4
:103200008BA3976F566C97A8906558789EA5845BA2
:103210005B82A4A07758668EA5956B587298A38799
:103220006160819F9C795B698EA1906A5B7698A2B0
:10323000865F5C81A39F7858638CA7986B546C97CA
:10324000A98D6158789FA480585D84A59E735769A5
:1032500091A792665A769BA3825D6184A19A735965
:103260006B92A48D655B789BA2825D5F83A49F7740
:103270005A668DA7976B576E97A78B625C7A9FA44F
:103280007E5B6084A39B725B6A8FA38F695E769876
:10329000A0826366839D9875606D8EA08C6960774F
:1032A000989F82616182A09C775E698DA4936C5B1C
:1032B0007095A489655F7A9C9F7C5E6485A19673F6
:1032C0006070909F8B6A627A989B7F6568859C93FB
:1032D0007362708F9D8A6A6379979B7F6365839E13
:1032E0009777616B8B9F8F6E6073939E8769657C08
:1032F00097987D6467839A917566728C988B7470C9
:103300007D8F8E7B676C818C857169758A94896FDE
:103310006D859D9F8A71738D9D8D6C5A647C8A81A9
:103320006661748B998F7A7A8EA1A18C797381866C
:103330007E6C5F69797E746A7289A1A08E82848FA7
:103340009385706262727F7667667D989C8C7B80C5
:103350009BAC9E7E68606D7D76655A6682908A829F
:10336000899DA59F907F777A8076665D5F70787380
:10337000707D97A5A1968E8F918E816D5E6172781A
:10338000695B5F79939B958F949BA09987736A7211
:103390007B726158617582888C93989A9C988F8310
:1033A0007D7C746B65676D6B676E80949B99939160
:1033B00090918E83756A6B7474696063768A929358
:1033C00091919498968A796F7176726B64666D7537
:1033D000808D96989492928F898079726D6C6E70C0
:1033E0006A656C7E909898949293938F83786F6DB2
:1033F0007274706A666C7A89969C999390919087A2
:1034000079706C6E72726F69687488999C959091EE
:103410009490857770707174746D676C79889095ED
:10342000999A968E87817C76706C6C70716F6F71D3
:103430007B8E9EA0968C8A8E8B7D6F666871777569
:103440006A6571889899918F95999383746F727456
:10345000726D6667727F85878F9BA09A8E8481814B
:103460007D7369666C73756F6A748EA3A393868986
:103470009292826F6468757D74625C6E8A98948A99
:103480008C979F9783716D747B776A6165747F8178
:10349000818B9BA39C8D807F8584796A616A787B10
:1034A0006F646E8BA4A59484869399887162667606
:1034B000817662596D8A9993888C9AA29A86716FE7
:1034C0007581796D5F6975838A93866C7190C0C0D0
:1034D000B77434315A87ABAC8A5A273D88C3E6C1EA
:1034E0006854698598A1946F45465A7CABAD844871
:1034F0003659B1E7ECB8682E1D5EA7D7B45D2A1027
:1035000048A6DFDF8B483570C8D8C283340C319BA6
:10351000E4E0850B002CB9FFFFB12C12509AD2CFFA
:1035200090410C2169BAE6C052132487F7FFD56693
:10353000131C6BBBD8A24D11145BB9D5CE99414772
:103540006CB7E4CB923D0A2281D2DE8B1B00279B15
:10355000FFFFB95017569CD1D7974013165AACD6D7
:10356000CC7B231359CBFFFF8D1D0550A5D8BD651E
:10357000170843ACD6C39869525893CEEBBE5D1181
:103580000254C3EEAC34000B7FFFFFC15D365C8C90
:10359000BDC19E5D3829387DC1DE9B280440C9FF2E
:1035A000FF9822074F9DD6BE6C2113478CB7BDAD47
:1035B00081594978CDFFD3680E004CBBF1B242006F
:1035C0000F6EDBFBCC7C4D5976ABC3B07748241F24
:1035D0006CC3EDAC2F0030B7FFFFA734165391C674
:1035E000BA7832274478A9BDB68453406DCBFFDA50
:1035F00071170242A4E2BA5812175EC2E6C88F677A
:10360000586594BDC39350160B5BC4F4BA3D0024B7
:10361000A1FFFFB751294779B1BB8D502C31569B83
:10362000C9D3964A3058C0FFE88925013591D6C2E2
:103630006E261650ADE0D19C6959618CB6C6A75B69
:1036400019074AB3F4C75205228DEFFFC35E324A11
:1036500071A9BB995D342C468CC8E4AA4B284EB4A2
:10366000FFEE9830062E82CCC77A301C4898D1D411
:10367000B278595679B2D0BC68180039A4F0D06736
:10368000171E74D5FFD77B3A3D5C9BBFAC6F3622CB
:10369000337EC1E7B95927429EF3F5A8450E266D42
:1036A000BECA8E411E3A83C5D5BD86615166A0D182
:1036B000C9802600218EECDB7D211863C5FBDD8AE5
:1036C0004A415689B3B48347222364BDF2CA6524B4
:1036D0003792EAF4B6571A2360ACC399572A376A6F
:1036E000AFD9D3965E49599DD4D1892E001E7EDC78
:1036F000DA8C382059B0ECE29F5746517CACB79237
:1037000053251C53B1F1D77B2A2E7FDBF7C26421EE
:103710002254A0BFA26431355FA0D1DBAB69454C18
:103720008ED6DC993A01156CCFDB984428529EDA8C
:10373000DFB2724E46619BBFAD6F260A39A5F5E236
:103740008A302671CEF6CD752F224990BBAD7940D7
:10375000314B8AD0E6BA6E3D4384CEDAA44D0D13C8
:103760005CBCD8A3582E4A8ED0E4BC78514A5990FC
:10377000BCB47C300D2D91E9E2953C2668C0EED0BA
:103780007F3B2A4983B1AD86533B3E6EBEEECF7E72
:10379000383275C9E0B05D151351B2CFAC633D4608
:1037A00080B5DDC59056474A83BCBD9039141E894B
:1037B000D0EF92611582B8F388487B6E88317FAB79
:1037C000C94A3500A4CAF3BA5E6C2289ACC9C6B135
:1037D0000C001EDAFCC108416DC1BB66B3A0A8296C
:1037E0002E91FFDF52003869997C7AFFA544008D45
:1037F000FFFF690057B1B11215C0ECA40000D9FF5A
:10380000EF194085BD954EA6E2A800008DFFF2326B
:103810000083CBA32E89FFE359003AFBFF96000BF0
:1038200094BE7341B5C6A0031CEFFFE800009DE302
:103830009D0042CBCE390063FFFF720071F0E0497A
:1038400034CEDA770000DBFFB10000BAE08B51D54F
:10385000FB9C0000AAFFFF110052DACC4749AFB928
:103860006C006AFFFF6B004FE9DC440094DC9900B8
:1038700000D7FFE20100B3FFBF2A65BBBA4B004D82
:10388000FFFF3E0057F4DE6560CAD36E002FFFFFD6
:10389000900000C5F4871B7CC09C331ECFFFD7006F
:1038A0000097F9B9222C9CB9570060FFFF5B004DCF
:1038B000FFFF610F80D4A60000B4FFB90000B9F784
:1038C000A84C8FC89C2700A3FFF30F0053F8EC54BB
:1038D000238ECB8D1454FFFF76001ADFFF81004743
:1038E000B298241DD6FFB40000CAFFBE142BABD083
:1038F00064004DF3FF540047F9FF80367DBF931BF2
:1039000037D5FF890000B6FFAF1A3FBDCC591EA4C2
:10391000FFDD1C0078FFE13C026EA6782E76FFF7F3
:10392000530051FFFF730041C8C32A069CFFBA0031
:1039300000A9FFE5302EA6CD711875ECD228004BFA
:10394000F4F3631574CDA33B57E1FF8D0000C6FF70
:10395000B0000790B76B44ADFFB71400AEFFDE1A9E
:103960000083D282194CCBE35D003AFFFF890353F9
:10397000CBCA4E299AE29C0000A4FFC3211FA9E0F4
:103980007F358EF3DB2F005AFFFF490041BEB85D43
:103990005DBDE282093FE8FF8E001DAACA6224785D
:1039A000DAB21600A3FFF7270089EFAC2C41B0D0A4
:1039B000560035EEFF72064FD0D66C55A9DE950045
:1039C00000B1FFBE00007AE3AB4E6BC8CC530A7D5A
:1039D000FFF23B0053D0B5463FA1C5680048FFFF4A
:1039E000890031C5EF7D2157B4AD240086FFDD3A53
:1039F000057DF6CA575DB5C74F004FFAFF5000244A
:103A0000CFF07B418BD6A32A33C6FFA8000088E302
:103A1000A0394B9CA950229AFFED340071F9D9438B
:103A20001878C97E032EC8FF950724C9FF9C3B6CFC
:103A3000B9A32C1293FEB90B0070FFD64F44A1D24C
:103A40007D1B62E8FF67001DC2EE77245BA89644E9
:103A500053D2FF9B0718B3FFA01C3298B24D1470CD
:103A6000F1EB49005FFFFF682B6FB98D2844B9E483
:103A70006F0019C9FF973463BBBD54359CF6C3155D
:103A8000006AF3D047266DAF8E5281DEE161004AB5
:103A9000E9F7640C49A59A3D3DADFAA10714C1FFB1
:103AA000BF32328EB76B3074C3B133006AFAE5634C
:103AB0003C7DC09C455EC0E5700011BAFF951C2D91
:103AC00093C57D579FE0B52D0E95FEBD311669A5B6
:103AD0007B4477CECD53056AFEFF771B4AA9B052CF
:103AE0003F88C08A121AAFFFB63D3F99CD844A8104
:103AF000C6B0260069EEDC521357BEBB696CAFCE70
:103B000081173FC3F089162584AE775F98C3962C42
:103B100034B7FFC838146EC999435399AD57146030
:103B2000E4F87F2C56B8C878608DA76E1334B5EFD3
:103B300099242290E0A25C7CB7B8511F78DFCE4B6D
:103B40000547ACAF706F97A36F3C78E1EE7E1933F9
:103B5000A2C77642679E8D3C369CF4CB4D2A82D715
:103B6000AF62648D904C2373D5CA5B1353CBD77B64
:103B70006490B78C3045A9E39B1B1078C7A4676E8F
:103B80008C986B5EA6E4BB420F68CCB054457B9D1D
:103B90006C376ACFEB872549BBDE8C4E5E85824849
:103BA0004D99C997322B93EBB5676793AA68397221
:103BB000C6C6510041B6D081546B9A9B6A78B5CC89
:103BC000812034A5D0874351838E5E589FE0BB4A45
:103BD0002A7FDDC8683F61907B4F6DA8B469275C80
:103BE000CCE28E5A6D9D915359A1C7831B1C87D877
:103BF000B4614D7AAD926E8AB7AD542066C4BD688B
:103C0000395988856683C0C8752A58BCE195403FFC
:103C10007C976B5780AD95493B93E2C16C5179A07D
:103C2000825B7BADA3491556C1D8864358A1B47EAB
:103C30007097B186353E96C79845396E97877C9FB9
:103C4000B8954C4792D6C15F29559D945D5E8FA96A
:103C5000783E60BDDF994F5690A3786A8B9A6F2C9F
:103C60003B98D6AF58427FBAA1707B9CA061346567
:103C7000B0BD722D468BA68D889C9B75506EB5D0BD
:103C80008D36337EA47B5D789D8F564A91D4C46E69
:103C9000426A9F987576857D4D3872C0C67D3E59C3
:103CA000A9BE8870879E8342468BC19C422C6CAD16
:103CB000A585858F8B6B6193C1AA572A5BA0996AF2
:103CC000678795745072BCD394474C8FAF8C6A69E8
:103CD0007B714D599BC39F544689C4A977768B91BC
:103CE0005F3F6CAFB868284899BC9A797B8C88682C
:103CF00075A5B782363682AC8C6A7088856364A0FD
:103D0000D0B5623C6CACAC7A5A677B6A5779AAB57D
:103D10007D4863A8C09573748677505C98BB8B3BD5
:103D20002F77C0B881697D98846E86A79E5E345CCB
:103D30009DA680666E807A6D8BB8BC82465191B923
:103D4000975E506E7E69688BB09C5F5186BEB38073
:103D50006671806A5E82A79955305CAFCB976466C6
:103D60008F9B7C768E9F8148467DAC9B6B5A728878
:103D70008184A2B5985C4877B3B1724859827E6954
:103D8000769DAA7C536AAAC49B645A778471738B0C
:103D90009775424A8DC8B271597DA291737C9494F3
:103DA00063405E9BB184555C85988C8DA1A07B534C
:103DB0005E97BC955341688B7F768BA28F635E9034
:103DC000C2B5754F61898B747788835D4970B2C4C1
:103DD000905A6293A48977808E7A4F4F83B29C6009
:103DE0004A71A1A0898996906D5A7CAAA86E40510B
:103DF0008292827E8E9378637DAEBD91564F7C9A7F
:103E00008670748275565D93C3AE6B537AA8A37F98
:103E1000737F84654E6EA1AB784A5B95B0978086C0
:103E20009283626793AF90503D6998967E7D8B89AF
:103E3000717095B8AB6C445F949E7E6A727A695CCF
:103E40007CAFBB88546096B395706B7C7A5C5F875F
:103E5000A8935B4D7AB0AD8575838F79647CA0A201
:103E60006C3C4F8BA78D747889847381A3AF895183
:103E70004D7FA7946C6070796D7395B1A06B577D81
:103E8000ADAB7D626C7F726074979F764E609DBD16
:103E90009B7471888D72708C9F844D4072A9A57C33
:103EA0006A798D847E92A89D6A47649AA7805C5E39
:103EB000767D7686A3A9825A6699B697685C737EEA
:103EC0006D6B859B8B5B5381B7B181687690836EF8
:103ED0007A929367415794B19169688592838598E6
:103EE000A284535081AA9A68506682828092A396D7
:103EF0006A5C80B0B07E555B7A8072788D91725525
:103F00006CA3BD996A6382937F74828F7C50497AD7
:103F1000ACA8795E729392848998926B4D6799A848
:103F2000825251768F8888959A81626D99B2986392
:103F30004F6A8681767F8C8265638AB3AD816170BA
:103F4000908E79778586674B6397B1936561849E80
:103F500092868C917F5A5984A4986448628D988B7C
:103F60008B918B726987AAA97B4D557B8E80777F59
:103F70008373657BA5B597675F819A8D78787D722D
:103F8000585A84A9A37359749FA68F8386866E5B43
:103F900072969F784B5281A29786858B847179990E
:103FA000AA925D49688E907B757C7D727392ADA6F6
:103FB0007B5A6B929C84727273675C749AA88A6154
:103FC000638BAA9D847B7F7C6768859B8C5D4A6A36
:103FD0009AA58E7F7F867E778AA09E744C578099A3
:103FE00089726E767B79859DA990666184A19676AB
:103FF000686C716B70889F98705E78A2AB907977CF
:104000007E776C788D92714F5C8AAA9B7E758089D1
:104010008184939B865A5071969778666D808584CB
:104020008F9D9978617498A18366636F76737C8D98
:104030009680636B92AD9E7B6C76807976818C8066
:104040005C5476A2A8876D72888E8789928F6F5292
:1040500062899E8A686075898B8C93988669698865
:10406000A39A745C62757D808790896E6681A7AE25
:104070008E6B6A7C847F7F84836A556793AC997466
:10408000677B90908A8A8B7C5E5B7A9A98765C6676
:104090008493908D908B76697B99A0845F596E8311
:1040A000878384877B6D7796AA9B756472858880E9
:1040B0007D7E77626482A1A38369718C978F8686E7
:1040C000836F5D6E8D9B87645F7995988C868882FF
:1040D00071738B9D936E5763808E877E8182777517
:1040E00088A0A28566677E8D877C78786D657793DA
:1040F000A3916F677F9798887D7D7666677F95929D
:10410000715B6B8D9D92827F827A737F92977D5BCC
:1041100059758F8F807A7E7E798193A092706173BA
:104120008B8F807371716D73889B997C6673919D81
:104130008F7B7577706B788A917E6162829D9B869A
:10414000787C807A7A8792886856688996887775AD
:104150007D7F818C99977D626782938B756A6D7381
:1041600078849398876D6C849C9982717274717451
:10417000808D886E627596A1907A777F807C828D23
:104180008D765B5E7C96937E72778085899195872C
:104190006B62758F937E6A68717A828C938D786B6F
:1041A0007A949F8D746B7076797F878979676D8B30
:1041B000A19A7F727884848184887D645C729198EE
:1041C000857071808B8C8B8D8A77676F8694876DF5
:1041D000636E7E86898B8C817273889C957A686AFF
:1041E000777E8080837F6F6C809AA08973728089CC
:1041F0008681817F70626B87998F766C7A8C918DC6
:104200008989806E6A7C91907863677B8B8E8A88BF
:10421000847A7581959B866B64718084807E7D76BF
:10422000717B929F93786E7A8A8D857F7D766868A0
:104230007C93957F6D73879592888481766C768A5E
:1042400092816761738B938B83817E7A7F8F9A8E45
:1042500072616A7E89847A7878757A8A9998826F91
:104260007385908A7E77756D68748A9688716C7E86
:1042700093988C817E7B7273828E886F5E69859540
:1042800090837D7F7E7E8792927D66647689887C2E
:104290007475777A8391988C776F7C8E918377721F
:1042A000706D7282908D796B748C9A92827B7B7820
:1042B000757C888B7963637B9294857A7B7F81851B
:1042C0008E92866E626E848D827371777C838C93FE
:1042D0008F7D6F758A958B786F7073767E888C81F1
:1042E000717285989685797A7E7B7B8287816D63F2
:1042F000718A968A7A77808587898D8B7966687EC0
:104300008F89776F747F85888C8D85767381919086
:104310007E6E6C72787D83898779707A8F998D7BB8
:1043200075797D7D7F858476666A82979480757ABB
:104330008488898A8A806E67768B8F8070707C878C
:104340008B8A8B897E757B8B9387736B707A7F8268
:1043500085867F74778797948173757D818180814D
:104360007A6C697A9197887574818B8B8886817550
:10437000696E828F87736C76868D8A87878278775D
:1043800083918E7A69697681848283827A7680913C
:10439000988A77717A83847F7D7C746C7487958F1B
:1043A0007C737B898F8A82807B706D798A8C7C6C30
:1043B0006F808E8E8784837E797D8A8F826D657013
:1043C00081888480807E7A7D8A96907E70727E86D7
:1043D000837C78757072809093847574828F8D84DD
:1043E0007D79736F76848C82706C7A8D928A817FEE
:1043F0007F7D7D858C8673666C7E8B867C7A7E7FE6
:10440000808690918373707C87867C757574757EC9
:104410008A918A7A747E8D92897D777674767F8987
:1044200086786D7488958F827D7F81808388887B74
:104430006B6777888B80797B8082848C908B7A7590
:10444000798D85716B6E767D787885908E7D82947E
:10445000A2917F756F6E757479867D6E6B7F949473
:104460008480858687887D817B696268869284786E
:104470007F7D7E8786979B8A756B7986847C737D2A
:104480007C6F7483918D7D7A8291918075757B7735
:10449000757C848478707A88938F83828488857E03
:1044A000797A786E6C7C8A867B7579848A8D8D8D1D
:1044B00085787178878B8071707881868989847C12
:1044C000777E8C9489766D70787F7E7C7D7873772B
:1044D0008694938478798189898581796D6B7888D0
:1044E0008C8175737D888B8B8A857B7477848D86B0
:1044F000766C717E86888684827B7B86918F8070C5
:104500006F7982847F7C7A73737E8C9287797881CD
:10451000898A847E7A756F74818B86797378858DAC
:104520008A8583807A767B85867A6C6C7A888A85A0
:1045300082817E7D838D9086776F75808580797886
:1045400078797F89908C7F777B868B877F7A77736A
:10455000737B868A807677828C8D88837F7A777A60
:10456000828780726B73828B88837F7D7D80899048
:104570008B7C6F6F7B85847C7777797D858E8E844D
:104580007878828B8A82797574747A828883787558
:104590007E8B918C847F7D7B7C808582766C707F26
:1045A0008B8A827D7D8082868C8C81736E778487F6
:1045B0007F7775797E838A8E897D777D888D877BED
:1045C0007474767A8288877D7579869190867E7CF0
:1045D0007D7E7F83847C716E79898F887F7C7F83E9
:1045E000878B8D867970738089857A74777D8388CF
:1045F0008C8A817879838C8A7F7371757A7F8485C0
:10460000807775808D91897E7A7B7D8081827E74B2
:104610006D74828C897F7A7B8186898B877B7171AF
:104620007C87887C73737B83888989827978818B86
:104630008C827570747B7F81817F78777C8A8E8C89
:104640007F7A7A808281807D776F737D8C89847692
:104650007C7C8A868D828272757686877F776A9661
:104660009792344A8DD9AD7F424A88B7AD574853A7
:10467000CDBA8F361E7FE8B58C4A38769FC080470A
:10468000588E99B4765741779FB283698F8B99750D
:104690007450749F8E93665C84978C695979AABA1A
:1046A000763A5A80B4BC824D3B82B4AB7B48488793
:1046B000C9C087453E84BA9F6E4259ACBD97532B03
:1046C00062BDD090343490CFCA74252F8EDEBB5F8C
:1046D0001B50BCDFA93C227BCFCD802F3C8FC5ADCA
:1046E0005B264DB2D19C4B2C78C7CD913B3788C20D
:1046F000B77032459ABD955C3E7DBEB67E3D469A0A
:10470000C9B272323B90BEA5693355A4C2A75C40C2
:1047100084B7B98746498BBAA563314F9DC0A0586D
:104720003874B1C199534983B1AC78404D96B7966E
:104730005A3E73B8BF88474592C6B577394390BA99
:10474000A1643358A5BD9D5D4381B5B1854F559496
:10475000B199663E5A9FB39159407DB6B48E514F80
:1047600090AFA076445496B0915A3E74B7BC8B4B30
:104770004991BFB67F3F498CB5A56735539DBC9F16
:104780005C447EB4B7874B5492B6A0633C5AA0B940
:1047900094563E7AB7B98E505092B4A4744254984D
:1047A000B392583B6FB5BA8B4D488FBEB580444E1F
:1047B0008DAE9F6C3F5A9BB095604980B0AF8750DB
:1047C0005793B4A0673C559BB8975A3A70B1BA93C7
:1047D000544D8BB1A97A465292B2965C3968AFBFFC
:1047E000914B4489BEBB82444D8CB4A56B3D589B14
:1047F000B595584983B4B17E4B5996B8A2643C59DB
:104800009DB995574072AEB68B53548DB1A6724A7E
:104810005A93B292583F6AAFC08E4C4687BCB9805B
:10482000475089B2A268425B9AB592564881B7B8A0
:1048300080455291BCAC65355199C2A055366BB0DC
:10484000C3934A4C8CB6B1723F5592BA9E553866A6
:10485000ADC695463E84BBC285404B84B3AA694031
:104860005997B896584C7FB1B5824D5B8EB1A66B07
:10487000435692B79C5D406BAABB92545186AEAC36
:104880007548578CB49C5B3E63A8C2964E427FB578
:10489000C089464B80AEAA6D445894B99855498159
:1048A000B6BC81425592B9AC66365192BDA3583A16
:1048B0006AACC4944B4F89B4B4723F568CB49E56C4
:1048C0003B66A6C2984F4882B1BD894A5280A7A6CE
:1048D0006C465B90B295574E82B1B7854A598DB000
:1048E000AB6D3F528AB5A2624062A1C09D584E7F17
:1048F000ADB87F465084B2A35F3D5FA2C29B5244D5
:104900007EB2C08E4A4D7EA9AA6F42558FB79B5783
:10491000477DB2BE8844548FB4B16E3B5089B2A477
:104920006242679EBB9A5A5784A7B17D4A5985AAAD
:104930009F6041649FBA98574E82ACB88D53577FA1
:10494000A3A36F4A5A8DB1985B4A79B0BE8C4B5283
:1049500089B2B376404B82B1A76842609BBC9D5B35
:104960005383ABB47F485586ADA0603D60A0BE9A2E
:10497000554881AFB98D515680A3A572495A8BAE67
:10498000995D4C7DACB78C50598BAAAA764653855D
:10499000AA9D684B699BB196625D86A6AB7F515A12
:1049A00084A89C66435E9CB99A5D4C7BAAB89158DA
:1049B000557CA2A4744B598CAE985F4B79ADBA91DB
:1049C000525386AEB17B444E82ABA26A48669AB31C
:1049D00098605B88A8AC7F4F5B88A79C6642609814
:1049E000B39C61507CA6B3935D597E9DA1774F5DCA
:1049F0008BA895624F79A7B3925C5883A6AA804F83
:104A0000517DA4A0704D6495AD97665C82A4A98287
:104A1000545884A69C69455C95B49C634E77A5B5B3
:104A2000935D567DA2A3764D5A8BAA97614D78A8C7
:104A3000B691595783A7AB7E4E537EA39F6E4E67A8
:104A400095AC95635D84A5A97E535B86A69C69475A
:104A50005F92B09A645277A2B39360597AA0A2751C
:104A60004F5A89AC98614C73A5B7925A567FA7AD3F
:104A70008051527CA49F6F4F6696AF96645C83A969
:104A8000AD80515885AAA069445B92B29C6451766E
:104A9000A2B392615A7B9FA176525D88A79562501E
:104AA00076A3B3915F5C82A5A97F55587FA39B6FC6
:104AB000526995AB92635E83A7AC82565A83A7A0D6
:104AC0006E495B8EAF9C6954739FB091635B7B9F13
:104AD000A177525B87A795634F72A2B2925E587F0F
:104AE000A5A88055577FA29A6D506894AA91625DDF
:104AF00083A6AB82545A83A6A06F4A5D8CAB9C6A96
:104B000055749CAD94655F7D9B9F78546086A2959B
:104B10006652749DAE94645C80A1A88558597E9EAF
:104B20009A70526992A895675F81A4AC87595B819E
:104B3000A3A1744C5B87A69C6E587499AC94675F74
:104B40007E9C9F7A546088A2936652739DAD956651
:104B50005D80A0A786595A7E9C9B71526990A6944D
:104B6000675D80A3AB885A5B80A09E754E5C86A370
:104B70009B6F5A7496A99569627E9A9E7A55608653
:104B80009F946851709AAD97675C7C9EA8885C5A28
:104B90007B999A7353678EA595685D7FA1AC8B5BFB
:104BA000597E9FA178505A82A19C735B7292A69500
:104BB0006B637E979C7B565F839C9369526F96A82C
:104BC00095695D7C9BA5885E5C7B98987455678C25
:104BD000A3966B5E7C9DA98C5F5B7B9B9F7A545CEC
:104BE000809D99735D7291A3936C647C969B7B58B6
:104BF0005F839E956C536E95AA986B5D7A9AA68A90
:104C0000605D7B96987557688BA0956C5E7C9CA9BF
:104C10008F625C7B999F7E575D7F999876607591D6
:104C2000A0916E6781989A7C5A62859D946E556CAE
:104C300092A7996F5F7998A48C655F7A949577595C
:104C400067899D936E607B9BA790665E7B999E7E35
:104C50005A5F7F999775617592A2936E67819B9D4C
:104C60007C585E849E966E536A90A7996F5F789683
:104C7000A48E655F7993957458688A9D926B5F7C6A
:104C80009CA78E635E7C999F7C595E809899726028
:104C90007394A39369647F9DA17D585C849E9D6CF1
:104CA000556292A4A26A636F9CA295616193A88EDB
:104CB0001F388DE3AF912B3D7FCDB36F4367C9A004
:104CC00088314298C982974C3C7EA3B58B456D9A3A
:104CD0009DCA7A473C6396CD8171746A8F958153E2
:104CE0008294A3A763577D919E63416C97BE8A46C9
:104CF0004C62B0DEAC5936639FCF99422B5CC8E260
:104D000085291E7BE6CD792D3FA6E7C0531037B726
:104D1000F1992A1665DEEE7F2A2489F7CD661B33CA
:104D2000B1F9AD300A51D3E984292280E7CF6F3041
:104D300037A0DDAB562951B5D3853C3777CFC56F4A
:104D40003946A1D7AA5C325DB2C88136327AD0CB5F
:104D500073303E9DD9B0643A59ACCF974A3A6CB89B
:104D6000C57636418ED4BA633553A5CF9E4F3A6689
:104D7000AFC178434C82C3B167415AA8CD9B553E21
:104D800069B5C27E423D77C1B771454F9ACAA062EC
:104D90004366B0C08B534672B1AF75494D8DBFA706
:104DA000704A60A0B594624B71A9AE7B4C4E88B935
:104DB000A26C4861A8BB955F4471AEB5864E447A3B
:104DC000B6AF79475399BDA267436CAAB58D534CD2
:104DD0007BADAD7B495292B8A26E496EA7AD905D96
:104DE0004F7CA4A47C50568CB09E6E476AA8B395A5
:104DF0005E4979A6A885534E7FAAA67A4C5D98AFE6
:104E00009F6A4A71A1AA8D574C7AA6A77E4C5590ED
:104E1000B0A57448699EAD985F4973A0A8845050AE
:104E200088AFA7764666A1B39E604472A2AE8E524A
:104E3000467AA9AE82495C96B0A86E496E9AAE9940
:104E4000584573A3AC854A528FAEA7754A6D9AA890
:104E500099624C739BA6864F4E88AFAA7A47639D92
:104E6000B1A366446C9DAD92554375A3AD874D5873
:104E700090ADA9744C6A95A6975F48709BA98A4F1C
:104E80005289ACAC7A4D6A97AA9D654B6F96A68CF9
:104E9000545181A5AB7F4F6592ADA86F4B6891AA25
:104EA000985C4B7298AC8D565D86A5AB7B536A8E31
:104EB000A49A654E6F94A58D595984A2AA83576808
:104EC0008DA4A06E516B90A5905A507AA0AC8753D8
:104ED000608BAAAD774D6189AAA064496893AE93AF
:104EE0005C5B7FA0AF84586585A2A16C4F678DA7DE
:104EF000925D567C9EAD885A6486A2A575536486E1
:104F0000A29863517296AB905D5F819EAB835861AE
:104F10007E9DA273526486A599685D7997AA8C607C
:104F200065819AA076556587A29869577396AD9565
:104F3000645E7A9CAB84585C7CA0A17052658DAD98
:104F40009C6759779BB08C5B59789CA57B545E809D
:104F5000A4A1725B7092AC97665E7897A581575D4D
:104F60007E9F9F73576C8EA89C6F5E7393A88E6212
:104F70005B7496A17D586082A3A2765C6E91AB991A
:104F800068576D93A5895D57759AA17D5D6989A55F
:104F90009C725E6F8FA18A6056749AA17D5860875B
:104FA000A7A1775B6A8EA79769546A91A2875C5A1A
:104FB0007EA1A37D5C698DA59B71596B8DA08D64CD
:104FC0005773959E83626687A09C785E6C8E9F8ED9
:104FD00066557196A1855C5B81A3A47F5D658AA3FC
:104FE0009B7255658CA18F6254759CA7885E608703
:104FF000A6A37855638CA29367516E96A28A6360CC
:1050000084A1A17F5C668CA1946B526C96A28B618B
:10501000587FA2A6865F6288A39E7855638A9F9177
:1050200068557499A38B646285A0A07F5B62899E9A
:10503000946D536B93A08C665E819FA1825D6289A3
:10504000A19870506592A4916453779EAA8C605E7B
:1050500084A3A27C566089A0956B53729AA68D6238
:105060006087A4A27F5A648BA0966E536C94A28E24
:10507000655D81A0A4855D6389A19A7352658FA344
:10508000946754769DAA8F635E82A1A27F58618740
:10509000A0976D546F96A68F655E82A1A3835C6115
:1050A00087A09871536891A391665B7EA2A6865DE6
:1050B0005F89A49C724F6290A4936652749CA990DD
:1050C000635E82A0A2805760889E946B537198A4FF
:1050D0008C626086A3A27F5A638AA0966E52699101
:1050E000A28E645A7EA1A7865D6087A49E735263D8
:1050F0008EA5946655759CA98D626284A1A27C5987
:105100006488A09569546F97A78D605F83A3A6807C
:105110005A6286A1996E52678EA490645A7C9FA8A9
:10512000865D6185A39F7452638BA39567557198C3
:10513000A88E64617F9DA17D5B63859D936B576F96
:1051400095A58C636083A3A47F5B6386A1986E534F
:10515000678FA48F645B7B9FA9865E6184A4A17521
:10516000546088A59769567095A88E6564809DA146
:105170007D5E67869E9269587195A389606182A160
:10518000A47E5D6585A19A6F56678DA490655D7953
:105190009CA8876164809F9F76586284A1946A5915
:1051A0006F93A68C6665809EA07B5E66849E926AE5
:1051B000586D92A48A63617EA0A6805F64809F9AE6
:1051C00071586488A391685D7599A78762637F9F12
:1051D0009E775A63849E916B5C6E90A28A69677E0B
:1051E0009A9C7A6167849C8F69596D91A2896462E7
:1051F0007C9EA48161637F9F99725963869F8E69AB
:105200005F7496A3866667809C9A775F66839A8DA3
:105210006A5F71919F86686A819D9B786068869FAE
:105220009069596C91A38A66637B9CA48365667FB1
:105230009C97745D67879D8C6A627897A084686B81
:10524000839D98766169869B8C6C6174929D84695C
:105250006B819B997A646A859B8D6C5D6E8F9E874E
:1052600068657C9CA1826768819B93736069889B59
:105270008A6B6579979E836A6C849C9676626A864F
:105280009A8A6C6274929C846B6C839C9878636B32
:10529000879B8B6B5D6E8F9D8669657C9A9D81690E
:1052A0006A839A9173626C8999866B667A969A8101
:1052B0006C6E849A9378676C8697886E6575909803
:1052C000836E6E829A967C696D86998B7062708D02
:1052D00098866E6A7D979A836E6D83978F776770D5
:1052E0008994856F6A7C9395816F71869790796AAE
:1052F000708793867068789094826F708598927B9F
:105300006B728894877167748C9384716E809494A7
:1053100082727384918A786C74868D81726F7F8FAC
:105320008F80747686928B7A6F75878E83736D7A91
:105330008C8F82747484938F7F7173869189776C5C
:1053400075878D857774808D8F847979858C867A41
:10535000737A87887F7575828C8A81797A878E893E
:105360007C747986898277727C8788817979828A50
:105370008880797A8387837B75798285827C7A803D
:105380008586837E7D8284827E797B81827E7A7926
:105390007F8585817D7C838785807A7A8183807C07
:1053A000787C8284827E7C818585827D7C808282FD
:1053B0007F7A7B7E8082807E808282838281817FF1
:1053C0007E7F7F7F7F7D7D7D7E80818182818081E8
:1053D0008283837F7C7B7D80817E7B7A7D838582D7
:1053E0007E7D808585807C7C7F83817C797A8286C6
:1053F000827E7B7F8586827E7B7E83827E7A797EBB
:1054000082807D7A7D8486827D7B8087867F7877A7
:105410007F86837C76788288867E797D8689847B88
:10542000787D85857D75768188867D767B878D877D
:105430007A757C87888074737E87857C7579868B86
:10544000857A767F8B8B8074727F89877B7174837A
:105450008C887B747C8A8E8578737D89897D717355
:10546000818C897B7179888F887A727B888B807236
:10547000717E8A897B7076868F8878717C8B8F832A
:10548000716E7E8C8C7D6E71838F8C7B707A8A902E
:1054900086746F7C8B8C7D6D70818E8B796D778936
:1054A0009289766F7C8C8F806E6E7F8C8A796D7618
:1054B00089938A766E7B8E92846F6C7C8D8E7C6CE9
:1054C0007083918C796E798C9387726E7C8D907ECF
:1054D0006B6E81908D796C7689938A756E7B8C90DA
:1054E000806D6E7F8E8C786A7589948B756D7C8FDC
:1054F00095846D6B7D8F907C696F83928E786D79CA
:105500008C9588716C7D8E907D696E83928E776AA2
:10551000778C978B736C7C9094816B6C80918E7779
:1055200068748A978C736A7B9097846C6A7E919179
:105530007A686F85948D756B798E97866E6C7E9187
:105540009179676E84948E7468768D9889706B7D7E
:1055500092947E696D82938D7367748C988A706A59
:105560007C9397816A6B80938F76667088978B7136
:105570006A7B9399846C6B81969278656E86978C22
:10558000716777909A876D6B7E95957C676D849631
:105590008D7266758E9A896E6B7D95987F696C8227
:1055A000969074657189988A706B7D9498816B6E02
:1055B00083979075657089988A6E6778929B856CE1
:1055C0006C8096957A676E85968B6F66778F9A86D4
:1055D0006D6B7F96987E686D84968D7266738B97DF
:1055E000866D6C7F96977E696E85988F7365728ADB
:1055F00097886D687A9299826C6E829793786770BB
:105600008897886D67789199836B6D8297967B6A8E
:105610007086988C7066758D98846C6C8097967B7C
:10562000697086998F7165718A98866B687B949989
:10563000816C708598907467738B98876E697A9186
:10564000967F6B6F8498927768718795876E68787C
:105650008F96816D6F83989579697188988A6F6646
:10566000748C97846B6A7C93957E6D7386968C732D
:1056700069758B948169687C93947C6A7085988F36
:105680007569728996856C677890957E6A6F839745
:1056900092786A748996886E68778F957F6B6E8230
:1056A0009692796B74889589726B778C927F6D6E08
:1056B0008093927A6B7287988D756C768B94826DDD
:1056C0006D7D91907A6C7286968C746B74899584DA
:1056D0006E6B798F937E6E7184958E776D778A95D8
:1056E000856E6A788E917B696D81948F786C758AEE
:1056F0009789736C788C927E6C6C7D918F796D75C7
:1057000088958A756E788C92826F6D7C8E8D796E9D
:105710007385938A756F7A8D9584706E7D908F7A7C
:105720006C7083938D786F788A958874707C8E9175
:105730007E6E7181918C786F7789948975707B8D7D
:10574000917F6F707F8E8A776E7688928775727D73
:105750008F9180717281908B776C73859186747054
:105760007A8D928273727F8E8D7B6F738390887631
:1057700070798B928474727F8E8E7D7173828E8726
:10578000767079888F827373808F8E7C7073828F2E
:1057900087756D7688918573717D8E8F8072748226
:1057A0008E88776E75858D8274717C8C8E80747511
:1057B000828E897A7175848C8274717B8A8C7E73F7
:1057C00075838F8A7A7176858D84746F78898D81DF
:1057D0007474808D8C7E7478848C85777279878BD5
:1057E0007F7475818C8B7D757A868E8678727A87C8
:1057F0008A7E72727E8B897B7277868F88787178C9
:10580000878B8072707A88897D7477838D887B76A8
:105810007C878B8175747E89887B7378848C877B89
:10582000767E8A8E8376747D89897C7375828B8778
:105830007B757B888E8578747D89897E74757F8978
:105840008579747A868B847977808A8A7E75778267
:105850008A8679727A878C837776808B8B7F75774F
:10586000828B877A7379858B847977808A8C81772C
:1058700079818A867B747983888177767F8A8A7F2B
:10588000777A848C887B7479868B8276737C898B1B
:10589000807779848D897D777B868C8377747C880B
:1058A0008A7F7578838C897D767A868B8377747D01
:1058B00087887D7578838B877C767C878C847875E8
:1058C0007D88897D7375818B887C767B878C8578D4
:1058D000757D888A7F7576818A877B747A878D85C6
:1058E0007A767D898B8076777F888679747A868CC4
:1058F0008478767F8A8C807475808A877A727884BF
:105900008B8478767E898C817576808A887A7276A7
:10591000838B8578747C888B827878818B887B7484
:1059200078838A8376747C888C817677808A8A7D76
:105930007478828B8577737A868B827676808C8C6E
:105940007F7478838B86787279858A8175757F8973
:105950008A7E767A858C8678737B878A8073737F5C
:105960008B8B7E7377838D887A7278858B82757244
:105970007C898A7E7477838D897B747B878C837521
:10598000737D88897C7275838C887A747B888D841A
:1059900075727C898F887A73777D8275737A828E2F
:1059A0008C837B7D828A8074787F8B907E788086E2
:1059B000887C6E697482897B787E89958F7C6E7213
:1059C000828F8A7E7582868A7F6E7380959B845FC4
:1059D00054618496A79C7D6D6D655B6A86B6C1AE89
:1059E00090644F52557098A8A59B7D614E5272925B
:1059F000B4BA9E73594E4A5A88C0D7C5894E2F3FB4
:105A00005674A9C6D2B57738243E65A1D2CFAD81F0
:105A10004B34364A80C2E8D6A36520174376AAD015
:105A2000DBBB83431B2B5797D0E4D59E55241B2FFC
:105A300064B2EBECB87A3B1E2C4E86BDE8E8B86A3F
:105A40002211285AA0D8E6C88A4B28264781C3EFDE
:105A5000E8B1621C09275FA6D9ECCF8C47212A4FF9
:105A600080B9DAD9B16D341A295CA1DCF1CB874356
:105A7000232B3F74B4DDE7C27A2F0D235698D0EA6A
:105A8000D38C4C322E487EB8E1E3BB6F2C101E4AFB
:105A90008FD4F2DD9A4B232A4A76A9D2DDC177381A
:105AA0001C204B92D4F1D4924D3038436AA4D1DA01
:105AB000C2883B0F1D4B87C4E7DA995537334A78C4
:105AC000ABD7DBBE833F17153A81CFF5DE9C542D53
:105AD00035547298C1D6CC8F4419144086CDEED37C
